{"project/contracts/PredictionMarket.sol":{"PredictionMarket":{"abi":[{"inputs":[{"internalType":"address","name":"_priceFeed","type":"address"},{"internalType":"uint256","name":"_roundDuration","type":"uint256"},{"internalType":"uint256","name":"_bufferSeconds","type":"uint256"},{"internalType":"uint256","name":"_minBetAmount","type":"uint256"}],"stateMutability":"nonpayable","type":"constructor"},{"inputs":[],"name":"EnforcedPause","type":"error"},{"inputs":[],"name":"ExpectedPause","type":"error"},{"inputs":[],"name":"InvalidAddress","type":"error"},{"inputs":[],"name":"InvalidAmount","type":"error"},{"inputs":[],"name":"InvalidEpoch","type":"error"},{"inputs":[],"name":"InvalidPriority","type":"error"},{"inputs":[],"name":"NoReward","type":"error"},{"inputs":[],"name":"OraclePriceInvalid","type":"error"},{"inputs":[{"internalType":"address","name":"owner","type":"address"}],"name":"OwnableInvalidOwner","type":"error"},{"inputs":[{"internalType":"address","name":"account","type":"address"}],"name":"OwnableUnauthorizedAccount","type":"error"},{"inputs":[],"name":"ReentrancyGuardReentrantCall","type":"error"},{"inputs":[],"name":"RoundAlreadyExecuted","type":"error"},{"inputs":[],"name":"RoundNotEnded","type":"error"},{"inputs":[],"name":"RoundNotLocked","type":"error"},{"inputs":[],"name":"RoundNotOpen","type":"error"},{"inputs":[],"name":"RoundNotStarted","type":"error"},{"inputs":[],"name":"RoundStuck","type":"error"},{"anonymous":false,"inputs":[{"indexed":true,"internalType":"address","name":"sender","type":"address"},{"indexed":true,"internalType":"uint256","name":"epoch","type":"uint256"},{"indexed":false,"internalType":"uint256","name":"amount","type":"uint256"}],"name":"BetBear","type":"event"},{"anonymous":false,"inputs":[{"indexed":true,"internalType":"address","name":"sender","type":"address"},{"indexed":true,"internalType":"uint256","name":"epoch","type":"uint256"},{"indexed":false,"internalType":"uint256","name":"amount","type":"uint256"}],"name":"BetBull","type":"event"},{"anonymous":false,"inputs":[{"indexed":true,"internalType":"address","name":"sender","type":"address"},{"indexed":true,"internalType":"uint256","name":"epoch","type":"uint256"},{"indexed":false,"internalType":"uint256","name":"amount","type":"uint256"}],"name":"Claim","type":"event"},{"anonymous":false,"inputs":[{"indexed":true,"internalType":"address","name":"sender","type":"address"},{"indexed":false,"internalType":"uint256[]","name":"epochs","type":"uint256[]"},{"indexed":false,"internalType":"uint256","name":"totalAmount","type":"uint256"}],"name":"ClaimMultiple","type":"event"},{"anonymous":false,"inputs":[{"indexed":true,"internalType":"uint256","name":"epoch","type":"uint256"},{"indexed":false,"internalType":"int256","name":"price","type":"int256"},{"indexed":false,"internalType":"enum PredictionMarket.Position","name":"winner","type":"uint8"}],"name":"EndRound","type":"event"},{"anonymous":false,"inputs":[{"indexed":true,"internalType":"uint256","name":"epoch","type":"uint256"},{"indexed":false,"internalType":"int256","name":"price","type":"int256"}],"name":"LockRound","type":"event"},{"anonymous":false,"inputs":[{"indexed":false,"internalType":"uint256","name":"bufferSeconds","type":"uint256"}],"name":"NewBufferSeconds","type":"event"},{"anonymous":false,"inputs":[{"indexed":false,"internalType":"uint256","name":"minBetAmount","type":"uint256"}],"name":"NewMinBetAmount","type":"event"},{"anonymous":false,"inputs":[{"indexed":false,"internalType":"uint256","name":"roundDuration","type":"uint256"}],"name":"NewRoundDuration","type":"event"},{"anonymous":false,"inputs":[{"indexed":true,"internalType":"address","name":"previousOwner","type":"address"},{"indexed":true,"internalType":"address","name":"newOwner","type":"address"}],"name":"OwnershipTransferred","type":"event"},{"anonymous":false,"inputs":[{"indexed":false,"internalType":"address","name":"account","type":"address"}],"name":"Paused","type":"event"},{"anonymous":false,"inputs":[{"indexed":true,"internalType":"address","name":"proposer","type":"address"},{"indexed":false,"internalType":"uint8","name":"priority","type":"uint8"},{"indexed":false,"internalType":"uint256","name":"amount","type":"uint256"}],"name":"ProposalCreated","type":"event"},{"anonymous":false,"inputs":[{"indexed":true,"internalType":"uint256","name":"epoch","type":"uint256"}],"name":"RoundCancelled","type":"event"},{"anonymous":false,"inputs":[{"indexed":true,"internalType":"uint256","name":"epoch","type":"uint256"}],"name":"StartRound","type":"event"},{"anonymous":false,"inputs":[{"indexed":false,"internalType":"uint256","name":"amount","type":"uint256"}],"name":"TreasuryDeposited","type":"event"},{"anonymous":false,"inputs":[{"indexed":true,"internalType":"address","name":"to","type":"address"},{"indexed":false,"internalType":"uint256","name":"amount","type":"uint256"}],"name":"TreasuryWithdrawn","type":"event"},{"anonymous":false,"inputs":[{"indexed":false,"internalType":"address","name":"account","type":"address"}],"name":"Unpaused","type":"event"},{"stateMutability":"payable","type":"fallback"},{"inputs":[],"name":"MAX_BPS","outputs":[{"internalType":"uint256","name":"","type":"uint256"}],"stateMutability":"view","type":"function"},{"inputs":[],"name":"PRECISION","outputs":[{"internalType":"uint256","name":"","type":"uint256"}],"stateMutability":"view","type":"function"},{"inputs":[],"name":"PROPOSAL_FEE_CRITICAL","outputs":[{"internalType":"uint256","name":"","type":"uint256"}],"stateMutability":"view","type":"function"},{"inputs":[],"name":"PROPOSAL_FEE_HIGH","outputs":[{"internalType":"uint256","name":"","type":"uint256"}],"stateMutability":"view","type":"function"},{"inputs":[],"name":"PROPOSAL_FEE_STANDARD","outputs":[{"internalType":"uint256","name":"","type":"uint256"}],"stateMutability":"view","type":"function"},{"inputs":[],"name":"TREASURY_FEE_BPS","outputs":[{"internalType":"uint256","name":"","type":"uint256"}],"stateMutability":"view","type":"function"},{"inputs":[{"internalType":"uint256","name":"epoch","type":"uint256"}],"name":"betBear","outputs":[],"stateMutability":"payable","type":"function"},{"inputs":[{"internalType":"uint256","name":"epoch","type":"uint256"}],"name":"betBull","outputs":[],"stateMutability":"payable","type":"function"},{"inputs":[],"name":"bufferSeconds","outputs":[{"internalType":"uint256","name":"","type":"uint256"}],"stateMutability":"view","type":"function"},{"inputs":[{"internalType":"uint256","name":"epoch","type":"uint256"}],"name":"cancelRound","outputs":[],"stateMutability":"nonpayable","type":"function"},{"inputs":[{"internalType":"uint256[]","name":"epochs","type":"uint256[]"}],"name":"claim","outputs":[],"stateMutability":"nonpayable","type":"function"},{"inputs":[{"internalType":"uint256","name":"","type":"uint256"},{"internalType":"address","name":"","type":"address"}],"name":"claimed","outputs":[{"internalType":"bool","name":"","type":"bool"}],"stateMutability":"view","type":"function"},{"inputs":[{"internalType":"uint8","name":"priority","type":"uint8"}],"name":"createProposal","outputs":[],"stateMutability":"payable","type":"function"},{"inputs":[],"name":"currentEpoch","outputs":[{"internalType":"uint256","name":"","type":"uint256"}],"stateMutability":"view","type":"function"},{"inputs":[],"name":"executeRound","outputs":[],"stateMutability":"nonpayable","type":"function"},{"inputs":[],"name":"genesisStartRound","outputs":[],"stateMutability":"nonpayable","type":"function"},{"inputs":[],"name":"getLatestPrice","outputs":[{"internalType":"int256","name":"","type":"int256"}],"stateMutability":"view","type":"function"},{"inputs":[{"internalType":"uint256","name":"epoch","type":"uint256"}],"name":"getRound","outputs":[{"components":[{"internalType":"uint256","name":"startTime","type":"uint256"},{"internalType":"uint256","name":"lockTime","type":"uint256"},{"internalType":"uint256","name":"closeTime","type":"uint256"},{"internalType":"int256","name":"startPrice","type":"int256"},{"internalType":"int256","name":"lockPrice","type":"int256"},{"internalType":"int256","name":"closePrice","type":"int256"},{"internalType":"uint256","name":"totalAmount","type":"uint256"},{"internalType":"uint256","name":"bullAmount","type":"uint256"},{"internalType":"uint256","name":"bearAmount","type":"uint256"},{"internalType":"uint256","name":"rewardBaseCalAmount","type":"uint256"},{"internalType":"uint256","name":"rewardAmount","type":"uint256"},{"internalType":"bool","name":"executed","type":"bool"},{"internalType":"enum PredictionMarket.Position","name":"winner","type":"uint8"}],"internalType":"struct PredictionMarket.Round","name":"","type":"tuple"}],"stateMutability":"view","type":"function"},{"inputs":[],"name":"getTreasuryBalance","outputs":[{"internalType":"uint256","name":"","type":"uint256"}],"stateMutability":"view","type":"function"},{"inputs":[{"internalType":"uint256","name":"epoch","type":"uint256"},{"internalType":"address","name":"user","type":"address"}],"name":"getUserBet","outputs":[{"components":[{"internalType":"enum PredictionMarket.Position","name":"position","type":"uint8"},{"internalType":"uint256","name":"amount","type":"uint256"}],"internalType":"struct PredictionMarket.Bet","name":"","type":"tuple"}],"stateMutability":"view","type":"function"},{"inputs":[{"internalType":"uint256","name":"epoch","type":"uint256"},{"internalType":"address","name":"user","type":"address"}],"name":"hasClaimed","outputs":[{"internalType":"bool","name":"","type":"bool"}],"stateMutability":"view","type":"function"},{"inputs":[{"internalType":"uint256","name":"epoch","type":"uint256"}],"name":"isRoundLocked","outputs":[{"internalType":"bool","name":"","type":"bool"}],"stateMutability":"view","type":"function"},{"inputs":[{"internalType":"uint256","name":"epoch","type":"uint256"}],"name":"isRoundOpen","outputs":[{"internalType":"bool","name":"","type":"bool"}],"stateMutability":"view","type":"function"},{"inputs":[{"internalType":"uint256","name":"","type":"uint256"},{"internalType":"address","name":"","type":"address"}],"name":"ledger","outputs":[{"internalType":"enum PredictionMarket.Position","name":"position","type":"uint8"},{"internalType":"uint256","name":"amount","type":"uint256"}],"stateMutability":"view","type":"function"},{"inputs":[],"name":"lockRound","outputs":[],"stateMutability":"nonpayable","type":"function"},{"inputs":[],"name":"minBetAmount","outputs":[{"internalType":"uint256","name":"","type":"uint256"}],"stateMutability":"view","type":"function"},{"inputs":[],"name":"owner","outputs":[{"internalType":"address","name":"","type":"address"}],"stateMutability":"view","type":"function"},{"inputs":[],"name":"pause","outputs":[],"stateMutability":"nonpayable","type":"function"},{"inputs":[],"name":"paused","outputs":[{"internalType":"bool","name":"","type":"bool"}],"stateMutability":"view","type":"function"},{"inputs":[],"name":"priceFeed","outputs":[{"internalType":"contract AggregatorV3Interface","name":"","type":"address"}],"stateMutability":"view","type":"function"},{"inputs":[],"name":"renounceOwnership","outputs":[],"stateMutability":"nonpayable","type":"function"},{"inputs":[],"name":"roundDuration","outputs":[{"internalType":"uint256","name":"","type":"uint256"}],"stateMutability":"view","type":"function"},{"inputs":[{"internalType":"uint256","name":"","type":"uint256"}],"name":"rounds","outputs":[{"internalType":"uint256","name":"startTime","type":"uint256"},{"internalType":"uint256","name":"lockTime","type":"uint256"},{"internalType":"uint256","name":"closeTime","type":"uint256"},{"internalType":"int256","name":"startPrice","type":"int256"},{"internalType":"int256","name":"lockPrice","type":"int256"},{"internalType":"int256","name":"closePrice","type":"int256"},{"internalType":"uint256","name":"totalAmount","type":"uint256"},{"internalType":"uint256","name":"bullAmount","type":"uint256"},{"internalType":"uint256","name":"bearAmount","type":"uint256"},{"internalType":"uint256","name":"rewardBaseCalAmount","type":"uint256"},{"internalType":"uint256","name":"rewardAmount","type":"uint256"},{"internalType":"bool","name":"executed","type":"bool"},{"internalType":"enum PredictionMarket.Position","name":"winner","type":"uint8"}],"stateMutability":"view","type":"function"},{"inputs":[{"internalType":"uint256","name":"_bufferSeconds","type":"uint256"}],"name":"setBufferSeconds","outputs":[],"stateMutability":"nonpayable","type":"function"},{"inputs":[{"internalType":"uint256","name":"_minBetAmount","type":"uint256"}],"name":"setMinBetAmount","outputs":[],"stateMutability":"nonpayable","type":"function"},{"inputs":[{"internalType":"uint256","name":"_roundDuration","type":"uint256"}],"name":"setRoundDuration","outputs":[],"stateMutability":"nonpayable","type":"function"},{"inputs":[{"internalType":"address","name":"","type":"address"}],"name":"totalClaimed","outputs":[{"internalType":"uint256","name":"","type":"uint256"}],"stateMutability":"view","type":"function"},{"inputs":[{"internalType":"address","name":"newOwner","type":"address"}],"name":"transferOwnership","outputs":[],"stateMutability":"nonpayable","type":"function"},{"inputs":[],"name":"treasuryBalance","outputs":[{"internalType":"uint256","name":"","type":"uint256"}],"stateMutability":"view","type":"function"},{"inputs":[],"name":"unpause","outputs":[],"stateMutability":"nonpayable","type":"function"},{"inputs":[{"internalType":"address payable","name":"to","type":"address"},{"internalType":"uint256","name":"amount","type":"uint256"}],"name":"withdrawTreasury","outputs":[],"stateMutability":"nonpayable","type":"function"},{"stateMutability":"payable","type":"receive"}],"evm":{"bytecode":{"linkReferences":{},"object":"60a060405234801561000f575f5ffd5b506040516126b03803806126b083398101604081905261002e91610156565b338061005357604051631e4fbdf760e01b81525f600482015260240160405180910390fd5b61005c81610107565b50600180556001600160a01b0384166100885760405163e6c4247b60e01b815260040160405180910390fd5b825f036100a85760405163162908e360e11b815260040160405180910390fd5b8282106100c85760405163162908e360e11b815260040160405180910390fd5b805f036100e85760405163162908e360e11b815260040160405180910390fd5b6001600160a01b0390931660805260039190915560045560055561019d565b5f80546001600160a01b038381166001600160a01b0319831681178455604051919092169283917f8be0079c531659141344cd1fd0a4f28419497f9722a3daafe3b4186f6b6457e09190a35050565b5f5f5f5f60808587031215610169575f5ffd5b84516001600160a01b038116811461017f575f5ffd5b60208601516040870151606090970151919890975090945092505050565b6080516124f46101bc5f395f81816104d70152611d8501526124f45ff3fe608060405260043610610249575f3560e01c80638456cb5911610138578063aaf5eb68116100b5578063eaba236111610079578063eaba236114610778578063ef5d9ae81461078d578063f2fde38b146107b8578063f7cb789a146107d7578063fa968eea146107ec578063fd967f4714610801576102a0565b8063aaf5eb68146106e3578063c03fb87c146106fe578063c4dec6ed1461072a578063d642aa0214610749578063dad06f7a1461075d576102a0565b80638e15f473116100fc5780638e15f473146106615780638f1327c0146106755780639b5655dc146106a1578063a3af85be146106b5578063aa6b873a146106d0576102a0565b80638456cb59146105595780638545ff2a1461056d578063873f6f9e146105885780638c65c81f146105a75780638da5cb5b14610645576102a0565b80636a6c7744116101c6578063728af96f1161018a578063728af96f146104b2578063741bef1a146104c657806376671808146105115780637b3205f5146105265780637e07ab091461053a576102a0565b80636a6c7744146103fc5780636ba4c1381461040f5780636c1885931461042e578063715018a61461044d5780637285c58b14610461576102a0565b806336c92c3f1161020d57806336c92c3f146103855780633f4ba83a146103a4578063452fd75a146103b857806357fb096f146103cc5780635c975abb146103df576102a0565b80630d86419a146102b7578063120aa877146102d6578063140fa8b214610324578063313dab2014610343578063337fd11c14610366576102a0565b366102a057341561029e573460065f82825461026591906120da565b90915550506040513481527fe10ea266a27b78053a79222b9455667694ca104e5128e0c95834949b33acb5dd9060200160405180910390a15b005b341561029e573460065f82825461026591906120da565b3480156102c2575f5ffd5b5061029e6102d1366004612101565b610816565b3480156102e1575f5ffd5b5061030f6102f036600461212b565b600960209081525f928352604080842090915290825290205460ff1681565b60405190151581526020015b60405180910390f35b34801561032f575f5ffd5b5061030f61033e366004612159565b61097d565b34801561034e575f5ffd5b5061035860065481565b60405190815260200161031b565b348015610371575f5ffd5b5061030f610380366004612159565b610a79565b348015610390575f5ffd5b5061029e61039f366004612159565b610b74565b3480156103af575f5ffd5b5061029e610bd8565b3480156103c3575f5ffd5b5061029e610bea565b61029e6103da366004612159565b610c1d565b3480156103ea575f5ffd5b505f54600160a01b900460ff1661030f565b61029e61040a366004612170565b610c64565b34801561041a575f5ffd5b5061029e610429366004612190565b610e0d565b348015610439575f5ffd5b5061029e610448366004612159565b610f80565b348015610458575f5ffd5b5061029e610fdd565b34801561046c575f5ffd5b506104a461047b36600461212b565b600860209081525f92835260408084209091529082529020805460019091015460ff9091169082565b60405161031b929190612235565b3480156104bd575f5ffd5b5061029e610fee565b3480156104d1575f5ffd5b506104f97f000000000000000000000000000000000000000000000000000000000000000081565b6040516001600160a01b03909116815260200161031b565b34801561051c575f5ffd5b5061035860025481565b348015610531575f5ffd5b5061029e6110bd565b348015610545575f5ffd5b5061029e610554366004612159565b611293565b348015610564575f5ffd5b5061029e611349565b348015610578575f5ffd5b50610358671bc16d674ec8000081565b348015610593575f5ffd5b5061030f6105a236600461212b565b611359565b3480156105b2575f5ffd5b5061062c6105c1366004612159565b600760208190525f918252604090912080546001820154600283015460038401546004850154600586015460068701549787015460088801546009890154600a8a0154600b909a0154989a979996989597949693959293919290919060ff808216916101009004168d565b60405161031b9d9c9b9a99989796959493929190612250565b348015610650575f5ffd5b505f546001600160a01b03166104f9565b34801561066c575f5ffd5b50610358611385565b348015610680575f5ffd5b5061069461068f366004612159565b611393565b60405161031b91906122c3565b3480156106ac575f5ffd5b50600654610358565b3480156106c0575f5ffd5b50610358674563918244f4000081565b61029e6106de366004612159565b611473565b3480156106ee575f5ffd5b50610358670de0b6b3a764000081565b348015610709575f5ffd5b5061071d61071836600461212b565b6114ae565b60405161031b919061236a565b348015610735575f5ffd5b5061029e610744366004612159565b611528565b348015610754575f5ffd5b50610358606481565b348015610768575f5ffd5b506103586706f05b59d3b2000081565b348015610783575f5ffd5b5061035860045481565b348015610798575f5ffd5b506103586107a736600461238a565b600a6020525f908152604090205481565b3480156107c3575f5ffd5b5061029e6107d236600461238a565b611587565b3480156107e2575f5ffd5b5061035860035481565b3480156107f7575f5ffd5b5061035860055481565b34801561080c575f5ffd5b5061035861271081565b61081e6115c1565b6001600160a01b0382166108455760405163e6c4247b60e01b815260040160405180910390fd5b805f036108655760405163162908e360e11b815260040160405180910390fd5b8060065410156108885760405163374c934360e11b815260040160405180910390fd5b8060065f82825461089991906123a5565b90915550506040515f906001600160a01b0384169083908381818185875af1925050503d805f81146108e6576040519150601f19603f3d011682016040523d82523d5f602084013e6108eb565b606091505b50509050806109355760405162461bcd60e51b815260206004820152601160248201527015da5d1a191c985dd85b0819985a5b1959607a1b60448201526064015b60405180910390fd5b826001600160a01b03167f41fdd680478135993bc53fb2ffaf9560951b57ef62ff6badd02b61e018b4f17f8360405161097091815260200190565b60405180910390a2505050565b5f81815260076020818152604080842081516101a08101835281548152600182015493810193909352600280820154928401929092526003810154606084015260048101546080840152600581015460a0840152600681015460c08401529283015460e08301526008830154610100808401919091526009840154610120840152600a840154610140840152600b84015460ff80821615156101608601528695936101808601939092041690811115610a3857610a38612201565b6002811115610a4957610a49612201565b90525080519091504210801590610a635750806020015142105b8015610a725750806101600151155b9392505050565b5f81815260076020818152604080842081516101a08101835281548152600182015493810193909352600280820154928401929092526003810154606084015260048101546080840152600581015460a0840152600681015460c08401529283015460e08301526008830154610100808401919091526009840154610120840152600a840154610140840152600b84015460ff80821615156101608601528695936101808601939092041690811115610b3457610b34612201565b6002811115610b4557610b45612201565b81525050905080602001514210158015610a635750608081015115158015610a72575061016001511592915050565b610b7c6115c1565b805f03610b9c5760405163162908e360e11b815260040160405180910390fd5b60038190556040518181527f250d2afa340f26f6b0ffe733238af3124888dc4af5b4b49e52d839153e2ee2f5906020015b60405180910390a150565b610be06115c1565b610be86115ed565b565b610bf26115c1565b60025415610c135760405163298ef61b60e21b815260040160405180910390fd5b610be86001611641565b610c2561170b565b610c2d611735565b333b15610c4d5760405163402bc00760e01b815260040160405180910390fd5b610c5881600161175f565b610c6160018055565b50565b610c6c61170b565b60028160ff161115610c9157604051630357013b60e51b815260040160405180910390fd5b5f60ff821615610cc2578160ff16600114610cb457674563918244f40000610ccc565b671bc16d674ec80000610ccc565b6706f05b59d3b200005b905080341015610cef5760405163162908e360e11b815260040160405180910390fd5b8060065f828254610d0091906120da565b90915550506040518181527fe10ea266a27b78053a79222b9455667694ca104e5128e0c95834949b33acb5dd9060200160405180910390a15f610d4382346123a5565b90508015610dd2576040515f90339083908381818185875af1925050503d805f8114610d8a576040519150601f19603f3d011682016040523d82523d5f602084013e610d8f565b606091505b5050905080610dd05760405162461bcd60e51b815260206004820152600d60248201526c1499599d5b990819985a5b1959609a1b604482015260640161092c565b505b6040805160ff851681526020810184905233917ff69a4fe943fe6a190cf6af29a3c959c939584665a9fe3ca31548c2a50a9da67d9101610970565b610e15611735565b5f805b82811015610e5b575f848483818110610e3357610e336123b8565b905060200201359050610e4681336119c0565b610e5090846120da565b925050600101610e18565b50805f03610e7c5760405163374c934360e11b815260040160405180910390fd5b335f908152600a602052604081208054839290610e9a9084906120da565b90915550506040515f90339083908381818185875af1925050503d805f8114610ede576040519150601f19603f3d011682016040523d82523d5f602084013e610ee3565b606091505b5050905080610f2c5760405162461bcd60e51b815260206004820152601560248201527410db185a5b481d1c985b9cd9995c8819985a5b1959605a1b604482015260640161092c565b336001600160a01b03167fcf57e0980467c849acd2a0022186411515f6ff47e23496846234eaba46faccfb858585604051610f69939291906123cc565b60405180910390a25050610f7c60018055565b5050565b610f886115c1565b805f03610fa85760405163162908e360e11b815260040160405180910390fd5b60058190556040518181527fbe054849fe210c446a3b3f68394753f210607326b38581dc64bd2e94a87f018290602001610bcd565b610fe56115c1565b610be85f611d30565b610ff661170b565b6002545f03611018576040516323a71b8760e21b815260040160405180910390fd5b6002545f908152600760205260409020600181015442101561104d5760405163402bc00760e01b815260040160405180910390fd5b60048101541561106f57604051624049e360e41b815260040160405180910390fd5b5f611078611d7f565b60048301819055600254604051828152919250907feef94cbda40aa01b9b02b7dbd6075caa3662c0fabf77a84ed674b09b0ff9cb1e9060200160405180910390a25050565b6110c561170b565b6110cd611735565b6002545f036110ef576040516323a71b8760e21b815260040160405180910390fd5b600280545f9081526007602052604090209081015442101561112457604051636218b96960e11b815260040160405180910390fd5b600b81015460ff161561114a5760405163298ef61b60e21b815260040160405180910390fd5b80600401545f0361116e57604051634e7e4c0b60e01b815260040160405180910390fd5b611176611d7f565b6005820155600b8101805460ff191660011790556002545f9081908190819061119e90611eaa565b600b890180549498509296509094509250859161ff0019166101008360028111156111cb576111cb612201565b0217905550600a850183905560098501819055811561122e578160065f8282546111f591906120da565b90915550506040518281527fe10ea266a27b78053a79222b9455667694ca104e5128e0c95834949b33acb5dd9060200160405180910390a15b6002547ffa8970b52397cdc9ae50aeb762dd64a9d17704fe4725ed1ead14e1c1b55ff0ec866005015486604051611266929190612408565b60405180910390a2611285600254600161128091906120da565b611641565b5050505050610be860018055565b61129b6115c1565b5f818152600760205260409020600b81015460ff16156112ce5760405163298ef61b60e21b815260040160405180910390fd5b60028101546112df90610e106120da565b4210156112fe57604051624049e360e41b815260040160405180910390fd5b600b8101805461ffff191660011790555f600a82018190556009820181905560405183917fbf7aeff89cf7a4c3d0145879e39aa6a19e8e64ed585090ef86bf31f4d2ae57bf91a25050565b6113516115c1565b610be8611fee565b5f8281526009602090815260408083206001600160a01b038516845290915290205460ff165b92915050565b5f61138e611d7f565b905090565b61139b612059565b5f8281526007602081815260409283902083516101a08101855281548152600182015492810192909252600280820154948301949094526003810154606083015260048101546080830152600581015460a0830152600681015460c08301529182015460e08201526008820154610100808301919091526009830154610120830152600a830154610140830152600b83015460ff80821615156101608501529294610180860193929091049091169081111561145957611459612201565b600281111561146a5761146a612201565b90525092915050565b61147b61170b565b611483611735565b333b156114a35760405163402bc00760e01b815260040160405180910390fd5b610c5881600261175f565b6040805180820182525f8082526020808301829052858252600881528382206001600160a01b0386168352905282902082518084019093528054919291829060ff16600281111561150157611501612201565b600281111561151257611512612201565b8152602001600182015481525050905092915050565b6115306115c1565b60035481106115525760405163162908e360e11b815260040160405180910390fd5b60048190556040518181527fcc6fa7a3021388d141719d37c1605733e6aad6eba3b17866afa98a0cfe23f35590602001610bcd565b61158f6115c1565b6001600160a01b0381166115b857604051631e4fbdf760e01b81525f600482015260240161092c565b610c6181611d30565b5f546001600160a01b03163314610be85760405163118cdaa760e01b815233600482015260240161092c565b6115f5612030565b5f805460ff60a01b191690557f5db9ee0a495bf2e6ff9c91a7834c1ba4fdd244a5e8aa4e537bd38aeae4b073aa335b6040516001600160a01b03909116815260200160405180910390a1565b5f61164a611d7f565b5f838152600760205260409020428155600454600354929350909161166f91906123a5565b61167990426120da565b600182015560035461168b90426120da565b600282810191909155600382018390555f600483018190556005830181905560068301819055600783018190556008830181905560098301819055600a8301819055600b8301805461ffff191690559084905560405184917f939f42374aa9bf1d8d8cd56d8a9110cb040cd8dfeae44080c6fcf2645e51b45291a2505050565b5f54600160a01b900460ff1615610be85760405163d93c066560e01b815260040160405180910390fd5b60026001540361175857604051633ee5aeb560e01b815260040160405180910390fd5b6002600155565b60025482146117815760405163d5b25b6360e01b815260040160405180910390fd5b5f82815260076020526040902080544210806117a1575080600101544210155b156117bf5760405163402bc00760e01b815260040160405180910390fd5b6005543410156117e25760405163162908e360e11b815260040160405180910390fd5b600b81015460ff16156118085760405163402bc00760e01b815260040160405180910390fd5b5f82600281111561181b5761181b612201565b036118395760405163162908e360e11b815260040160405180910390fd5b5f83815260086020908152604080832033845290915290206001810154156118a65782600281111561186d5761186d612201565b815460ff16600281111561188357611883612201565b146118a15760405163162908e360e11b815260040160405180910390fd5b6118ca565b80548390829060ff191660018360028111156118c4576118c4612201565b02179055505b34816001015f8282546118dd91906120da565b9250508190555034826006015f8282546118f791906120da565b909155506001905083600281111561191157611911612201565b0361196a5734826007015f82825461192991906120da565b9091555050604051348152849033907f438122d8cff518d18388099a5181f0d17a12b4f1b55faedf6e4a6acee0060c129060200160405180910390a36119ba565b34826008015f82825461197d91906120da565b9091555050604051348152849033907f0d8c1fe3e67ab767116a81f122b83c2557a8c2564019cb7c4f83de1aeb1f1f0d9060200160405180910390a35b50505050565b5f82815260076020818152604080842081516101a08101835281548152600182015493810193909352600280820154928401929092526003810154606084015260048101546080840152600581015460a0840152600681015460c08401529283015460e08301526008830154610100808401919091526009840154610120840152600a840154610140840152600b84015460ff80821615156101608601528695936101808601939092041690811115611a7b57611a7b612201565b6002811115611a8c57611a8c612201565b815250509050806101600151611aa5575f91505061137f565b5f8481526009602090815260408083206001600160a01b038716845290915290205460ff1615611ad8575f91505061137f565b5f8481526008602090815260408083206001600160a01b038716845290915280822081518083019092528054829060ff166002811115611b1a57611b1a612201565b6002811115611b2b57611b2b612201565b8152602001600182015481525050905080602001515f03611b50575f9250505061137f565b5f8261018001516002811115611b6857611b68612201565b03611be8575f8581526009602090815260408083206001600160a01b03881680855290835292819020805460ff191660011790559083015190518792917f34fcbac0073d7c3d388e51312faf357774904998eeb8fca628b9e6f65ee1cbf791611bd391815260200190565b60405180910390a360200151915061137f9050565b8161018001516002811115611bff57611bff612201565b81516002811115611c1257611c12612201565b14611c21575f9250505061137f565b8161012001515f03611c61575050505f8281526009602090815260408083206001600160a01b03851684529091528120805460ff1916600117905561137f565b5f8261012001518361014001518360200151611c7d919061241c565b611c879190612433565b9050805f03611cc6575050505f8381526009602090815260408083206001600160a01b03861684529091528120805460ff19166001179055905061137f565b5f8681526009602090815260408083206001600160a01b03891680855290835292819020805460ff19166001179055518381528892917f34fcbac0073d7c3d388e51312faf357774904998eeb8fca628b9e6f65ee1cbf7910160405180910390a395945050505050565b5f80546001600160a01b038381166001600160a01b0319831681178455604051919092169283917f8be0079c531659141344cd1fd0a4f28419497f9722a3daafe3b4186f6b6457e09190a35050565b5f5f5f5f7f00000000000000000000000000000000000000000000000000000000000000006001600160a01b031663feaf968c6040518163ffffffff1660e01b815260040160a060405180830381865afa158015611ddf573d5f5f3e3d5ffd5b505050506040513d601f19601f82011682018060405250810190611e039190612470565b94509450509350505f8313611e2b5760405163e5ea8c6560e01b815260040160405180910390fd5b815f03611e4b5760405163e5ea8c6560e01b815260040160405180910390fd5b610e10611e5883426123a5565b10611e765760405163e5ea8c6560e01b815260040160405180910390fd5b8069ffffffffffffffffffff165f03611ea25760405163e5ea8c6560e01b815260040160405180910390fd5b509092915050565b5f818152600760205260408120600381015460058201548392839283921315611ed65760019450611efe565b806003015481600501541215611eef5760029450611efe565b505f9250829150819050611fe7565b80600601545f03611f1857505f9250829150819050611fe7565b6001856002811115611f2c57611f2c612201565b148015611f3c57505f8160070154115b15611f7a576008810154612710611f5460648361241c565b611f5e9190612433565b9350611f6a84826123a5565b9450816007015492505050611fe7565b6002856002811115611f8e57611f8e612201565b148015611f9e57505f8160080154115b15611fdc576007810154612710611fb660648361241c565b611fc09190612433565b9350611fcc84826123a5565b9450816008015492505050611fe7565b505f92508291508190505b9193509193565b611ff661170b565b5f805460ff60a01b1916600160a01b1790557f62e78cea01bee320cd4e420270b5ea74000d11b0c9f74754ebdbfc544b05a2586116243390565b5f54600160a01b900460ff16610be857604051638dfc202b60e01b815260040160405180910390fd5b604051806101a001604052805f81526020015f81526020015f81526020015f81526020015f81526020015f81526020015f81526020015f81526020015f81526020015f81526020015f81526020015f151581526020015f60028111156120c1576120c1612201565b905290565b634e487b7160e01b5f52601160045260245ffd5b8082018082111561137f5761137f6120c6565b6001600160a01b0381168114610c61575f5ffd5b5f5f60408385031215612112575f5ffd5b823561211d816120ed565b946020939093013593505050565b5f5f6040838503121561213c575f5ffd5b82359150602083013561214e816120ed565b809150509250929050565b5f60208284031215612169575f5ffd5b5035919050565b5f60208284031215612180575f5ffd5b813560ff81168114610a72575f5ffd5b5f5f602083850312156121a1575f5ffd5b823567ffffffffffffffff8111156121b7575f5ffd5b8301601f810185136121c7575f5ffd5b803567ffffffffffffffff8111156121dd575f5ffd5b8560208260051b84010111156121f1575f5ffd5b6020919091019590945092505050565b634e487b7160e01b5f52602160045260245ffd5b6003811061223157634e487b7160e01b5f52602160045260245ffd5b9052565b604081016122438285612215565b8260208301529392505050565b5f6101a0820190508e82528d60208301528c60408301528b60608301528a60808301528960a08301528860c08301528760e08301528661010083015285610120830152846101408301528315156101608301526122b1610180830184612215565b9e9d5050505050505050505050505050565b5f6101a082019050825182526020830151602083015260408301516040830152606083015160608301526080830151608083015260a083015160a083015260c083015160c083015260e083015160e083015261010083015161010083015261012083015161012083015261014083015161014083015261016083015161234e61016084018215159052565b50610180830151612363610180840182612215565b5092915050565b5f60408201905061237c828451612215565b602092830151919092015290565b5f6020828403121561239a575f5ffd5b8135610a72816120ed565b8181038181111561137f5761137f6120c6565b634e487b7160e01b5f52603260045260245ffd5b604080825281018390525f6001600160fb1b038411156123ea575f5ffd5b8360051b808660608501376020830193909352500160600192915050565b82815260408101610a726020830184612215565b808202811582820484141761137f5761137f6120c6565b5f8261244d57634e487b7160e01b5f52601260045260245ffd5b500490565b805169ffffffffffffffffffff8116811461246b575f5ffd5b919050565b5f5f5f5f5f60a08688031215612484575f5ffd5b61248d86612452565b602087015160408801516060890151929750909550935091506124b260808701612452565b9050929550929590935056fea264697066735822122017033e6e8433de1262e56dedccd24f0eadfd29682f6cec60abf736156c44be6b64736f6c634300081c0033","opcodes":"PUSH1 0xA0 PUSH1 0x40 MSTORE CALLVALUE DUP1 ISZERO PUSH2 0xF JUMPI PUSH0 PUSH0 REVERT JUMPDEST POP PUSH1 0x40 MLOAD PUSH2 0x26B0 CODESIZE SUB DUP1 PUSH2 0x26B0 DUP4 CODECOPY DUP2 ADD PUSH1 0x40 DUP2 SWAP1 MSTORE PUSH2 0x2E SWAP2 PUSH2 0x156 JUMP JUMPDEST CALLER DUP1 PUSH2 0x53 JUMPI PUSH1 0x40 MLOAD PUSH4 0x1E4FBDF7 PUSH1 0xE0 SHL DUP2 MSTORE PUSH0 PUSH1 0x4 DUP3 ADD MSTORE PUSH1 0x24 ADD PUSH1 0x40 MLOAD DUP1 SWAP2 SUB SWAP1 REVERT JUMPDEST PUSH2 0x5C DUP2 PUSH2 0x107 JUMP JUMPDEST POP PUSH1 0x1 DUP1 SSTORE PUSH1 0x1 PUSH1 0x1 PUSH1 0xA0 SHL SUB DUP5 AND PUSH2 0x88 JUMPI PUSH1 0x40 MLOAD PUSH4 0xE6C4247B PUSH1 0xE0 SHL DUP2 MSTORE PUSH1 0x4 ADD PUSH1 0x40 MLOAD DUP1 SWAP2 SUB SWAP1 REVERT JUMPDEST DUP3 PUSH0 SUB PUSH2 0xA8 JUMPI PUSH1 0x40 MLOAD PUSH4 0x162908E3 PUSH1 0xE1 SHL DUP2 MSTORE PUSH1 0x4 ADD PUSH1 0x40 MLOAD DUP1 SWAP2 SUB SWAP1 REVERT JUMPDEST DUP3 DUP3 LT PUSH2 0xC8 JUMPI PUSH1 0x40 MLOAD PUSH4 0x162908E3 PUSH1 0xE1 SHL DUP2 MSTORE PUSH1 0x4 ADD PUSH1 0x40 MLOAD DUP1 SWAP2 SUB SWAP1 REVERT JUMPDEST DUP1 PUSH0 SUB PUSH2 0xE8 JUMPI PUSH1 0x40 MLOAD PUSH4 0x162908E3 PUSH1 0xE1 SHL DUP2 MSTORE PUSH1 0x4 ADD PUSH1 0x40 MLOAD DUP1 SWAP2 SUB SWAP1 REVERT JUMPDEST PUSH1 0x1 PUSH1 0x1 PUSH1 0xA0 SHL SUB SWAP1 SWAP4 AND PUSH1 0x80 MSTORE PUSH1 0x3 SWAP2 SWAP1 SWAP2 SSTORE PUSH1 0x4 SSTORE PUSH1 0x5 SSTORE PUSH2 0x19D JUMP JUMPDEST PUSH0 DUP1 SLOAD PUSH1 0x1 PUSH1 0x1 PUSH1 0xA0 SHL SUB DUP4 DUP2 AND PUSH1 0x1 PUSH1 0x1 PUSH1 0xA0 SHL SUB NOT DUP4 AND DUP2 OR DUP5 SSTORE PUSH1 0x40 MLOAD SWAP2 SWAP1 SWAP3 AND SWAP3 DUP4 SWAP2 PUSH32 0x8BE0079C531659141344CD1FD0A4F28419497F9722A3DAAFE3B4186F6B6457E0 SWAP2 SWAP1 LOG3 POP POP JUMP JUMPDEST PUSH0 PUSH0 PUSH0 PUSH0 PUSH1 0x80 DUP6 DUP8 SUB SLT ISZERO PUSH2 0x169 JUMPI PUSH0 PUSH0 REVERT JUMPDEST DUP5 MLOAD PUSH1 0x1 PUSH1 0x1 PUSH1 0xA0 SHL SUB DUP2 AND DUP2 EQ PUSH2 0x17F JUMPI PUSH0 PUSH0 REVERT JUMPDEST PUSH1 0x20 DUP7 ADD MLOAD PUSH1 0x40 DUP8 ADD MLOAD PUSH1 0x60 SWAP1 SWAP8 ADD MLOAD SWAP2 SWAP9 SWAP1 SWAP8 POP SWAP1 SWAP5 POP SWAP3 POP POP POP JUMP JUMPDEST PUSH1 0x80 MLOAD PUSH2 0x24F4 PUSH2 0x1BC PUSH0 CODECOPY PUSH0 DUP2 DUP2 PUSH2 0x4D7 ADD MSTORE PUSH2 0x1D85 ADD MSTORE PUSH2 0x24F4 PUSH0 RETURN INVALID PUSH1 0x80 PUSH1 0x40 MSTORE PUSH1 0x4 CALLDATASIZE LT PUSH2 0x249 JUMPI PUSH0 CALLDATALOAD PUSH1 0xE0 SHR DUP1 PUSH4 0x8456CB59 GT PUSH2 0x138 JUMPI DUP1 PUSH4 0xAAF5EB68 GT PUSH2 0xB5 JUMPI DUP1 PUSH4 0xEABA2361 GT PUSH2 0x79 JUMPI DUP1 PUSH4 0xEABA2361 EQ PUSH2 0x778 JUMPI DUP1 PUSH4 0xEF5D9AE8 EQ PUSH2 0x78D JUMPI DUP1 PUSH4 0xF2FDE38B EQ PUSH2 0x7B8 JUMPI DUP1 PUSH4 0xF7CB789A EQ PUSH2 0x7D7 JUMPI DUP1 PUSH4 0xFA968EEA EQ PUSH2 0x7EC JUMPI DUP1 PUSH4 0xFD967F47 EQ PUSH2 0x801 JUMPI PUSH2 0x2A0 JUMP JUMPDEST DUP1 PUSH4 0xAAF5EB68 EQ PUSH2 0x6E3 JUMPI DUP1 PUSH4 0xC03FB87C EQ PUSH2 0x6FE JUMPI DUP1 PUSH4 0xC4DEC6ED EQ PUSH2 0x72A JUMPI DUP1 PUSH4 0xD642AA02 EQ PUSH2 0x749 JUMPI DUP1 PUSH4 0xDAD06F7A EQ PUSH2 0x75D JUMPI PUSH2 0x2A0 JUMP JUMPDEST DUP1 PUSH4 0x8E15F473 GT PUSH2 0xFC JUMPI DUP1 PUSH4 0x8E15F473 EQ PUSH2 0x661 JUMPI DUP1 PUSH4 0x8F1327C0 EQ PUSH2 0x675 JUMPI DUP1 PUSH4 0x9B5655DC EQ PUSH2 0x6A1 JUMPI DUP1 PUSH4 0xA3AF85BE EQ PUSH2 0x6B5 JUMPI DUP1 PUSH4 0xAA6B873A EQ PUSH2 0x6D0 JUMPI PUSH2 0x2A0 JUMP JUMPDEST DUP1 PUSH4 0x8456CB59 EQ PUSH2 0x559 JUMPI DUP1 PUSH4 0x8545FF2A EQ PUSH2 0x56D JUMPI DUP1 PUSH4 0x873F6F9E EQ PUSH2 0x588 JUMPI DUP1 PUSH4 0x8C65C81F EQ PUSH2 0x5A7 JUMPI DUP1 PUSH4 0x8DA5CB5B EQ PUSH2 0x645 JUMPI PUSH2 0x2A0 JUMP JUMPDEST DUP1 PUSH4 0x6A6C7744 GT PUSH2 0x1C6 JUMPI DUP1 PUSH4 0x728AF96F GT PUSH2 0x18A JUMPI DUP1 PUSH4 0x728AF96F EQ PUSH2 0x4B2 JUMPI DUP1 PUSH4 0x741BEF1A EQ PUSH2 0x4C6 JUMPI DUP1 PUSH4 0x76671808 EQ PUSH2 0x511 JUMPI DUP1 PUSH4 0x7B3205F5 EQ PUSH2 0x526 JUMPI DUP1 PUSH4 0x7E07AB09 EQ PUSH2 0x53A JUMPI PUSH2 0x2A0 JUMP JUMPDEST DUP1 PUSH4 0x6A6C7744 EQ PUSH2 0x3FC JUMPI DUP1 PUSH4 0x6BA4C138 EQ PUSH2 0x40F JUMPI DUP1 PUSH4 0x6C188593 EQ PUSH2 0x42E JUMPI DUP1 PUSH4 0x715018A6 EQ PUSH2 0x44D JUMPI DUP1 PUSH4 0x7285C58B EQ PUSH2 0x461 JUMPI PUSH2 0x2A0 JUMP JUMPDEST DUP1 PUSH4 0x36C92C3F GT PUSH2 0x20D JUMPI DUP1 PUSH4 0x36C92C3F EQ PUSH2 0x385 JUMPI DUP1 PUSH4 0x3F4BA83A EQ PUSH2 0x3A4 JUMPI DUP1 PUSH4 0x452FD75A EQ PUSH2 0x3B8 JUMPI DUP1 PUSH4 0x57FB096F EQ PUSH2 0x3CC JUMPI DUP1 PUSH4 0x5C975ABB EQ PUSH2 0x3DF JUMPI PUSH2 0x2A0 JUMP JUMPDEST DUP1 PUSH4 0xD86419A EQ PUSH2 0x2B7 JUMPI DUP1 PUSH4 0x120AA877 EQ PUSH2 0x2D6 JUMPI DUP1 PUSH4 0x140FA8B2 EQ PUSH2 0x324 JUMPI DUP1 PUSH4 0x313DAB20 EQ PUSH2 0x343 JUMPI DUP1 PUSH4 0x337FD11C EQ PUSH2 0x366 JUMPI PUSH2 0x2A0 JUMP JUMPDEST CALLDATASIZE PUSH2 0x2A0 JUMPI CALLVALUE ISZERO PUSH2 0x29E JUMPI CALLVALUE PUSH1 0x6 PUSH0 DUP3 DUP3 SLOAD PUSH2 0x265 SWAP2 SWAP1 PUSH2 0x20DA JUMP JUMPDEST SWAP1 SWAP2 SSTORE POP POP PUSH1 0x40 MLOAD CALLVALUE DUP2 MSTORE PUSH32 0xE10EA266A27B78053A79222B9455667694CA104E5128E0C95834949B33ACB5DD SWAP1 PUSH1 0x20 ADD PUSH1 0x40 MLOAD DUP1 SWAP2 SUB SWAP1 LOG1 JUMPDEST STOP JUMPDEST CALLVALUE ISZERO PUSH2 0x29E JUMPI CALLVALUE PUSH1 0x6 PUSH0 DUP3 DUP3 SLOAD PUSH2 0x265 SWAP2 SWAP1 PUSH2 0x20DA JUMP JUMPDEST CALLVALUE DUP1 ISZERO PUSH2 0x2C2 JUMPI PUSH0 PUSH0 REVERT JUMPDEST POP PUSH2 0x29E PUSH2 0x2D1 CALLDATASIZE PUSH1 0x4 PUSH2 0x2101 JUMP JUMPDEST PUSH2 0x816 JUMP JUMPDEST CALLVALUE DUP1 ISZERO PUSH2 0x2E1 JUMPI PUSH0 PUSH0 REVERT JUMPDEST POP PUSH2 0x30F PUSH2 0x2F0 CALLDATASIZE PUSH1 0x4 PUSH2 0x212B JUMP JUMPDEST PUSH1 0x9 PUSH1 0x20 SWAP1 DUP2 MSTORE PUSH0 SWAP3 DUP4 MSTORE PUSH1 0x40 DUP1 DUP5 KECCAK256 SWAP1 SWAP2 MSTORE SWAP1 DUP3 MSTORE SWAP1 KECCAK256 SLOAD PUSH1 0xFF AND DUP2 JUMP JUMPDEST PUSH1 0x40 MLOAD SWAP1 ISZERO ISZERO DUP2 MSTORE PUSH1 0x20 ADD JUMPDEST PUSH1 0x40 MLOAD DUP1 SWAP2 SUB SWAP1 RETURN JUMPDEST CALLVALUE DUP1 ISZERO PUSH2 0x32F JUMPI PUSH0 PUSH0 REVERT JUMPDEST POP PUSH2 0x30F PUSH2 0x33E CALLDATASIZE PUSH1 0x4 PUSH2 0x2159 JUMP JUMPDEST PUSH2 0x97D JUMP JUMPDEST CALLVALUE DUP1 ISZERO PUSH2 0x34E JUMPI PUSH0 PUSH0 REVERT JUMPDEST POP PUSH2 0x358 PUSH1 0x6 SLOAD DUP2 JUMP JUMPDEST PUSH1 0x40 MLOAD SWAP1 DUP2 MSTORE PUSH1 0x20 ADD PUSH2 0x31B JUMP JUMPDEST CALLVALUE DUP1 ISZERO PUSH2 0x371 JUMPI PUSH0 PUSH0 REVERT JUMPDEST POP PUSH2 0x30F PUSH2 0x380 CALLDATASIZE PUSH1 0x4 PUSH2 0x2159 JUMP JUMPDEST PUSH2 0xA79 JUMP JUMPDEST CALLVALUE DUP1 ISZERO PUSH2 0x390 JUMPI PUSH0 PUSH0 REVERT JUMPDEST POP PUSH2 0x29E PUSH2 0x39F CALLDATASIZE PUSH1 0x4 PUSH2 0x2159 JUMP JUMPDEST PUSH2 0xB74 JUMP JUMPDEST CALLVALUE DUP1 ISZERO PUSH2 0x3AF JUMPI PUSH0 PUSH0 REVERT JUMPDEST POP PUSH2 0x29E PUSH2 0xBD8 JUMP JUMPDEST CALLVALUE DUP1 ISZERO PUSH2 0x3C3 JUMPI PUSH0 PUSH0 REVERT JUMPDEST POP PUSH2 0x29E PUSH2 0xBEA JUMP JUMPDEST PUSH2 0x29E PUSH2 0x3DA CALLDATASIZE PUSH1 0x4 PUSH2 0x2159 JUMP JUMPDEST PUSH2 0xC1D JUMP JUMPDEST CALLVALUE DUP1 ISZERO PUSH2 0x3EA JUMPI PUSH0 PUSH0 REVERT JUMPDEST POP PUSH0 SLOAD PUSH1 0x1 PUSH1 0xA0 SHL SWAP1 DIV PUSH1 0xFF AND PUSH2 0x30F JUMP JUMPDEST PUSH2 0x29E PUSH2 0x40A CALLDATASIZE PUSH1 0x4 PUSH2 0x2170 JUMP JUMPDEST PUSH2 0xC64 JUMP JUMPDEST CALLVALUE DUP1 ISZERO PUSH2 0x41A JUMPI PUSH0 PUSH0 REVERT JUMPDEST POP PUSH2 0x29E PUSH2 0x429 CALLDATASIZE PUSH1 0x4 PUSH2 0x2190 JUMP JUMPDEST PUSH2 0xE0D JUMP JUMPDEST CALLVALUE DUP1 ISZERO PUSH2 0x439 JUMPI PUSH0 PUSH0 REVERT JUMPDEST POP PUSH2 0x29E PUSH2 0x448 CALLDATASIZE PUSH1 0x4 PUSH2 0x2159 JUMP JUMPDEST PUSH2 0xF80 JUMP JUMPDEST CALLVALUE DUP1 ISZERO PUSH2 0x458 JUMPI PUSH0 PUSH0 REVERT JUMPDEST POP PUSH2 0x29E PUSH2 0xFDD JUMP JUMPDEST CALLVALUE DUP1 ISZERO PUSH2 0x46C JUMPI PUSH0 PUSH0 REVERT JUMPDEST POP PUSH2 0x4A4 PUSH2 0x47B CALLDATASIZE PUSH1 0x4 PUSH2 0x212B JUMP JUMPDEST PUSH1 0x8 PUSH1 0x20 SWAP1 DUP2 MSTORE PUSH0 SWAP3 DUP4 MSTORE PUSH1 0x40 DUP1 DUP5 KECCAK256 SWAP1 SWAP2 MSTORE SWAP1 DUP3 MSTORE SWAP1 KECCAK256 DUP1 SLOAD PUSH1 0x1 SWAP1 SWAP2 ADD SLOAD PUSH1 0xFF SWAP1 SWAP2 AND SWAP1 DUP3 JUMP JUMPDEST PUSH1 0x40 MLOAD PUSH2 0x31B SWAP3 SWAP2 SWAP1 PUSH2 0x2235 JUMP JUMPDEST CALLVALUE DUP1 ISZERO PUSH2 0x4BD JUMPI PUSH0 PUSH0 REVERT JUMPDEST POP PUSH2 0x29E PUSH2 0xFEE JUMP JUMPDEST CALLVALUE DUP1 ISZERO PUSH2 0x4D1 JUMPI PUSH0 PUSH0 REVERT JUMPDEST POP PUSH2 0x4F9 PUSH32 0x0 DUP2 JUMP JUMPDEST PUSH1 0x40 MLOAD PUSH1 0x1 PUSH1 0x1 PUSH1 0xA0 SHL SUB SWAP1 SWAP2 AND DUP2 MSTORE PUSH1 0x20 ADD PUSH2 0x31B JUMP JUMPDEST CALLVALUE DUP1 ISZERO PUSH2 0x51C JUMPI PUSH0 PUSH0 REVERT JUMPDEST POP PUSH2 0x358 PUSH1 0x2 SLOAD DUP2 JUMP JUMPDEST CALLVALUE DUP1 ISZERO PUSH2 0x531 JUMPI PUSH0 PUSH0 REVERT JUMPDEST POP PUSH2 0x29E PUSH2 0x10BD JUMP JUMPDEST CALLVALUE DUP1 ISZERO PUSH2 0x545 JUMPI PUSH0 PUSH0 REVERT JUMPDEST POP PUSH2 0x29E PUSH2 0x554 CALLDATASIZE PUSH1 0x4 PUSH2 0x2159 JUMP JUMPDEST PUSH2 0x1293 JUMP JUMPDEST CALLVALUE DUP1 ISZERO PUSH2 0x564 JUMPI PUSH0 PUSH0 REVERT JUMPDEST POP PUSH2 0x29E PUSH2 0x1349 JUMP JUMPDEST CALLVALUE DUP1 ISZERO PUSH2 0x578 JUMPI PUSH0 PUSH0 REVERT JUMPDEST POP PUSH2 0x358 PUSH8 0x1BC16D674EC80000 DUP2 JUMP JUMPDEST CALLVALUE DUP1 ISZERO PUSH2 0x593 JUMPI PUSH0 PUSH0 REVERT JUMPDEST POP PUSH2 0x30F PUSH2 0x5A2 CALLDATASIZE PUSH1 0x4 PUSH2 0x212B JUMP JUMPDEST PUSH2 0x1359 JUMP JUMPDEST CALLVALUE DUP1 ISZERO PUSH2 0x5B2 JUMPI PUSH0 PUSH0 REVERT JUMPDEST POP PUSH2 0x62C PUSH2 0x5C1 CALLDATASIZE PUSH1 0x4 PUSH2 0x2159 JUMP JUMPDEST PUSH1 0x7 PUSH1 0x20 DUP2 SWAP1 MSTORE PUSH0 SWAP2 DUP3 MSTORE PUSH1 0x40 SWAP1 SWAP2 KECCAK256 DUP1 SLOAD PUSH1 0x1 DUP3 ADD SLOAD PUSH1 0x2 DUP4 ADD SLOAD PUSH1 0x3 DUP5 ADD SLOAD PUSH1 0x4 DUP6 ADD SLOAD PUSH1 0x5 DUP7 ADD SLOAD PUSH1 0x6 DUP8 ADD SLOAD SWAP8 DUP8 ADD SLOAD PUSH1 0x8 DUP9 ADD SLOAD PUSH1 0x9 DUP10 ADD SLOAD PUSH1 0xA DUP11 ADD SLOAD PUSH1 0xB SWAP1 SWAP11 ADD SLOAD SWAP9 SWAP11 SWAP8 SWAP10 SWAP7 SWAP9 SWAP6 SWAP8 SWAP5 SWAP7 SWAP4 SWAP6 SWAP3 SWAP4 SWAP2 SWAP3 SWAP1 SWAP2 SWAP1 PUSH1 0xFF DUP1 DUP3 AND SWAP2 PUSH2 0x100 SWAP1 DIV AND DUP14 JUMP JUMPDEST PUSH1 0x40 MLOAD PUSH2 0x31B SWAP14 SWAP13 SWAP12 SWAP11 SWAP10 SWAP9 SWAP8 SWAP7 SWAP6 SWAP5 SWAP4 SWAP3 SWAP2 SWAP1 PUSH2 0x2250 JUMP JUMPDEST CALLVALUE DUP1 ISZERO PUSH2 0x650 JUMPI PUSH0 PUSH0 REVERT JUMPDEST POP PUSH0 SLOAD PUSH1 0x1 PUSH1 0x1 PUSH1 0xA0 SHL SUB AND PUSH2 0x4F9 JUMP JUMPDEST CALLVALUE DUP1 ISZERO PUSH2 0x66C JUMPI PUSH0 PUSH0 REVERT JUMPDEST POP PUSH2 0x358 PUSH2 0x1385 JUMP JUMPDEST CALLVALUE DUP1 ISZERO PUSH2 0x680 JUMPI PUSH0 PUSH0 REVERT JUMPDEST POP PUSH2 0x694 PUSH2 0x68F CALLDATASIZE PUSH1 0x4 PUSH2 0x2159 JUMP JUMPDEST PUSH2 0x1393 JUMP JUMPDEST PUSH1 0x40 MLOAD PUSH2 0x31B SWAP2 SWAP1 PUSH2 0x22C3 JUMP JUMPDEST CALLVALUE DUP1 ISZERO PUSH2 0x6AC JUMPI PUSH0 PUSH0 REVERT JUMPDEST POP PUSH1 0x6 SLOAD PUSH2 0x358 JUMP JUMPDEST CALLVALUE DUP1 ISZERO PUSH2 0x6C0 JUMPI PUSH0 PUSH0 REVERT JUMPDEST POP PUSH2 0x358 PUSH8 0x4563918244F40000 DUP2 JUMP JUMPDEST PUSH2 0x29E PUSH2 0x6DE CALLDATASIZE PUSH1 0x4 PUSH2 0x2159 JUMP JUMPDEST PUSH2 0x1473 JUMP JUMPDEST CALLVALUE DUP1 ISZERO PUSH2 0x6EE JUMPI PUSH0 PUSH0 REVERT JUMPDEST POP PUSH2 0x358 PUSH8 0xDE0B6B3A7640000 DUP2 JUMP JUMPDEST CALLVALUE DUP1 ISZERO PUSH2 0x709 JUMPI PUSH0 PUSH0 REVERT JUMPDEST POP PUSH2 0x71D PUSH2 0x718 CALLDATASIZE PUSH1 0x4 PUSH2 0x212B JUMP JUMPDEST PUSH2 0x14AE JUMP JUMPDEST PUSH1 0x40 MLOAD PUSH2 0x31B SWAP2 SWAP1 PUSH2 0x236A JUMP JUMPDEST CALLVALUE DUP1 ISZERO PUSH2 0x735 JUMPI PUSH0 PUSH0 REVERT JUMPDEST POP PUSH2 0x29E PUSH2 0x744 CALLDATASIZE PUSH1 0x4 PUSH2 0x2159 JUMP JUMPDEST PUSH2 0x1528 JUMP JUMPDEST CALLVALUE DUP1 ISZERO PUSH2 0x754 JUMPI PUSH0 PUSH0 REVERT JUMPDEST POP PUSH2 0x358 PUSH1 0x64 DUP2 JUMP JUMPDEST CALLVALUE DUP1 ISZERO PUSH2 0x768 JUMPI PUSH0 PUSH0 REVERT JUMPDEST POP PUSH2 0x358 PUSH8 0x6F05B59D3B20000 DUP2 JUMP JUMPDEST CALLVALUE DUP1 ISZERO PUSH2 0x783 JUMPI PUSH0 PUSH0 REVERT JUMPDEST POP PUSH2 0x358 PUSH1 0x4 SLOAD DUP2 JUMP JUMPDEST CALLVALUE DUP1 ISZERO PUSH2 0x798 JUMPI PUSH0 PUSH0 REVERT JUMPDEST POP PUSH2 0x358 PUSH2 0x7A7 CALLDATASIZE PUSH1 0x4 PUSH2 0x238A JUMP JUMPDEST PUSH1 0xA PUSH1 0x20 MSTORE PUSH0 SWAP1 DUP2 MSTORE PUSH1 0x40 SWAP1 KECCAK256 SLOAD DUP2 JUMP JUMPDEST CALLVALUE DUP1 ISZERO PUSH2 0x7C3 JUMPI PUSH0 PUSH0 REVERT JUMPDEST POP PUSH2 0x29E PUSH2 0x7D2 CALLDATASIZE PUSH1 0x4 PUSH2 0x238A JUMP JUMPDEST PUSH2 0x1587 JUMP JUMPDEST CALLVALUE DUP1 ISZERO PUSH2 0x7E2 JUMPI PUSH0 PUSH0 REVERT JUMPDEST POP PUSH2 0x358 PUSH1 0x3 SLOAD DUP2 JUMP JUMPDEST CALLVALUE DUP1 ISZERO PUSH2 0x7F7 JUMPI PUSH0 PUSH0 REVERT JUMPDEST POP PUSH2 0x358 PUSH1 0x5 SLOAD DUP2 JUMP JUMPDEST CALLVALUE DUP1 ISZERO PUSH2 0x80C JUMPI PUSH0 PUSH0 REVERT JUMPDEST POP PUSH2 0x358 PUSH2 0x2710 DUP2 JUMP JUMPDEST PUSH2 0x81E PUSH2 0x15C1 JUMP JUMPDEST PUSH1 0x1 PUSH1 0x1 PUSH1 0xA0 SHL SUB DUP3 AND PUSH2 0x845 JUMPI PUSH1 0x40 MLOAD PUSH4 0xE6C4247B PUSH1 0xE0 SHL DUP2 MSTORE PUSH1 0x4 ADD PUSH1 0x40 MLOAD DUP1 SWAP2 SUB SWAP1 REVERT JUMPDEST DUP1 PUSH0 SUB PUSH2 0x865 JUMPI PUSH1 0x40 MLOAD PUSH4 0x162908E3 PUSH1 0xE1 SHL DUP2 MSTORE PUSH1 0x4 ADD PUSH1 0x40 MLOAD DUP1 SWAP2 SUB SWAP1 REVERT JUMPDEST DUP1 PUSH1 0x6 SLOAD LT ISZERO PUSH2 0x888 JUMPI PUSH1 0x40 MLOAD PUSH4 0x374C9343 PUSH1 0xE1 SHL DUP2 MSTORE PUSH1 0x4 ADD PUSH1 0x40 MLOAD DUP1 SWAP2 SUB SWAP1 REVERT JUMPDEST DUP1 PUSH1 0x6 PUSH0 DUP3 DUP3 SLOAD PUSH2 0x899 SWAP2 SWAP1 PUSH2 0x23A5 JUMP JUMPDEST SWAP1 SWAP2 SSTORE POP POP PUSH1 0x40 MLOAD PUSH0 SWAP1 PUSH1 0x1 PUSH1 0x1 PUSH1 0xA0 SHL SUB DUP5 AND SWAP1 DUP4 SWAP1 DUP4 DUP2 DUP2 DUP2 DUP6 DUP8 GAS CALL SWAP3 POP POP POP RETURNDATASIZE DUP1 PUSH0 DUP2 EQ PUSH2 0x8E6 JUMPI PUSH1 0x40 MLOAD SWAP2 POP PUSH1 0x1F NOT PUSH1 0x3F RETURNDATASIZE ADD AND DUP3 ADD PUSH1 0x40 MSTORE RETURNDATASIZE DUP3 MSTORE RETURNDATASIZE PUSH0 PUSH1 0x20 DUP5 ADD RETURNDATACOPY PUSH2 0x8EB JUMP JUMPDEST PUSH1 0x60 SWAP2 POP JUMPDEST POP POP SWAP1 POP DUP1 PUSH2 0x935 JUMPI PUSH1 0x40 MLOAD PUSH3 0x461BCD PUSH1 0xE5 SHL DUP2 MSTORE PUSH1 0x20 PUSH1 0x4 DUP3 ADD MSTORE PUSH1 0x11 PUSH1 0x24 DUP3 ADD MSTORE PUSH17 0x15DA5D1A191C985DD85B0819985A5B1959 PUSH1 0x7A SHL PUSH1 0x44 DUP3 ADD MSTORE PUSH1 0x64 ADD JUMPDEST PUSH1 0x40 MLOAD DUP1 SWAP2 SUB SWAP1 REVERT JUMPDEST DUP3 PUSH1 0x1 PUSH1 0x1 PUSH1 0xA0 SHL SUB AND PUSH32 0x41FDD680478135993BC53FB2FFAF9560951B57EF62FF6BADD02B61E018B4F17F DUP4 PUSH1 0x40 MLOAD PUSH2 0x970 SWAP2 DUP2 MSTORE PUSH1 0x20 ADD SWAP1 JUMP JUMPDEST PUSH1 0x40 MLOAD DUP1 SWAP2 SUB SWAP1 LOG2 POP POP POP JUMP JUMPDEST PUSH0 DUP2 DUP2 MSTORE PUSH1 0x7 PUSH1 0x20 DUP2 DUP2 MSTORE PUSH1 0x40 DUP1 DUP5 KECCAK256 DUP2 MLOAD PUSH2 0x1A0 DUP2 ADD DUP4 MSTORE DUP2 SLOAD DUP2 MSTORE PUSH1 0x1 DUP3 ADD SLOAD SWAP4 DUP2 ADD SWAP4 SWAP1 SWAP4 MSTORE PUSH1 0x2 DUP1 DUP3 ADD SLOAD SWAP3 DUP5 ADD SWAP3 SWAP1 SWAP3 MSTORE PUSH1 0x3 DUP2 ADD SLOAD PUSH1 0x60 DUP5 ADD MSTORE PUSH1 0x4 DUP2 ADD SLOAD PUSH1 0x80 DUP5 ADD MSTORE PUSH1 0x5 DUP2 ADD SLOAD PUSH1 0xA0 DUP5 ADD MSTORE PUSH1 0x6 DUP2 ADD SLOAD PUSH1 0xC0 DUP5 ADD MSTORE SWAP3 DUP4 ADD SLOAD PUSH1 0xE0 DUP4 ADD MSTORE PUSH1 0x8 DUP4 ADD SLOAD PUSH2 0x100 DUP1 DUP5 ADD SWAP2 SWAP1 SWAP2 MSTORE PUSH1 0x9 DUP5 ADD SLOAD PUSH2 0x120 DUP5 ADD MSTORE PUSH1 0xA DUP5 ADD SLOAD PUSH2 0x140 DUP5 ADD MSTORE PUSH1 0xB DUP5 ADD SLOAD PUSH1 0xFF DUP1 DUP3 AND ISZERO ISZERO PUSH2 0x160 DUP7 ADD MSTORE DUP7 SWAP6 SWAP4 PUSH2 0x180 DUP7 ADD SWAP4 SWAP1 SWAP3 DIV AND SWAP1 DUP2 GT ISZERO PUSH2 0xA38 JUMPI PUSH2 0xA38 PUSH2 0x2201 JUMP JUMPDEST PUSH1 0x2 DUP2 GT ISZERO PUSH2 0xA49 JUMPI PUSH2 0xA49 PUSH2 0x2201 JUMP JUMPDEST SWAP1 MSTORE POP DUP1 MLOAD SWAP1 SWAP2 POP TIMESTAMP LT DUP1 ISZERO SWAP1 PUSH2 0xA63 JUMPI POP DUP1 PUSH1 0x20 ADD MLOAD TIMESTAMP LT JUMPDEST DUP1 ISZERO PUSH2 0xA72 JUMPI POP DUP1 PUSH2 0x160 ADD MLOAD ISZERO JUMPDEST SWAP4 SWAP3 POP POP POP JUMP JUMPDEST PUSH0 DUP2 DUP2 MSTORE PUSH1 0x7 PUSH1 0x20 DUP2 DUP2 MSTORE PUSH1 0x40 DUP1 DUP5 KECCAK256 DUP2 MLOAD PUSH2 0x1A0 DUP2 ADD DUP4 MSTORE DUP2 SLOAD DUP2 MSTORE PUSH1 0x1 DUP3 ADD SLOAD SWAP4 DUP2 ADD SWAP4 SWAP1 SWAP4 MSTORE PUSH1 0x2 DUP1 DUP3 ADD SLOAD SWAP3 DUP5 ADD SWAP3 SWAP1 SWAP3 MSTORE PUSH1 0x3 DUP2 ADD SLOAD PUSH1 0x60 DUP5 ADD MSTORE PUSH1 0x4 DUP2 ADD SLOAD PUSH1 0x80 DUP5 ADD MSTORE PUSH1 0x5 DUP2 ADD SLOAD PUSH1 0xA0 DUP5 ADD MSTORE PUSH1 0x6 DUP2 ADD SLOAD PUSH1 0xC0 DUP5 ADD MSTORE SWAP3 DUP4 ADD SLOAD PUSH1 0xE0 DUP4 ADD MSTORE PUSH1 0x8 DUP4 ADD SLOAD PUSH2 0x100 DUP1 DUP5 ADD SWAP2 SWAP1 SWAP2 MSTORE PUSH1 0x9 DUP5 ADD SLOAD PUSH2 0x120 DUP5 ADD MSTORE PUSH1 0xA DUP5 ADD SLOAD PUSH2 0x140 DUP5 ADD MSTORE PUSH1 0xB DUP5 ADD SLOAD PUSH1 0xFF DUP1 DUP3 AND ISZERO ISZERO PUSH2 0x160 DUP7 ADD MSTORE DUP7 SWAP6 SWAP4 PUSH2 0x180 DUP7 ADD SWAP4 SWAP1 SWAP3 DIV AND SWAP1 DUP2 GT ISZERO PUSH2 0xB34 JUMPI PUSH2 0xB34 PUSH2 0x2201 JUMP JUMPDEST PUSH1 0x2 DUP2 GT ISZERO PUSH2 0xB45 JUMPI PUSH2 0xB45 PUSH2 0x2201 JUMP JUMPDEST DUP2 MSTORE POP POP SWAP1 POP DUP1 PUSH1 0x20 ADD MLOAD TIMESTAMP LT ISZERO DUP1 ISZERO PUSH2 0xA63 JUMPI POP PUSH1 0x80 DUP2 ADD MLOAD ISZERO ISZERO DUP1 ISZERO PUSH2 0xA72 JUMPI POP PUSH2 0x160 ADD MLOAD ISZERO SWAP3 SWAP2 POP POP JUMP JUMPDEST PUSH2 0xB7C PUSH2 0x15C1 JUMP JUMPDEST DUP1 PUSH0 SUB PUSH2 0xB9C JUMPI PUSH1 0x40 MLOAD PUSH4 0x162908E3 PUSH1 0xE1 SHL DUP2 MSTORE PUSH1 0x4 ADD PUSH1 0x40 MLOAD DUP1 SWAP2 SUB SWAP1 REVERT JUMPDEST PUSH1 0x3 DUP2 SWAP1 SSTORE PUSH1 0x40 MLOAD DUP2 DUP2 MSTORE PUSH32 0x250D2AFA340F26F6B0FFE733238AF3124888DC4AF5B4B49E52D839153E2EE2F5 SWAP1 PUSH1 0x20 ADD JUMPDEST PUSH1 0x40 MLOAD DUP1 SWAP2 SUB SWAP1 LOG1 POP JUMP JUMPDEST PUSH2 0xBE0 PUSH2 0x15C1 JUMP JUMPDEST PUSH2 0xBE8 PUSH2 0x15ED JUMP JUMPDEST JUMP JUMPDEST PUSH2 0xBF2 PUSH2 0x15C1 JUMP JUMPDEST PUSH1 0x2 SLOAD ISZERO PUSH2 0xC13 JUMPI PUSH1 0x40 MLOAD PUSH4 0x298EF61B PUSH1 0xE2 SHL DUP2 MSTORE PUSH1 0x4 ADD PUSH1 0x40 MLOAD DUP1 SWAP2 SUB SWAP1 REVERT JUMPDEST PUSH2 0xBE8 PUSH1 0x1 PUSH2 0x1641 JUMP JUMPDEST PUSH2 0xC25 PUSH2 0x170B JUMP JUMPDEST PUSH2 0xC2D PUSH2 0x1735 JUMP JUMPDEST CALLER EXTCODESIZE ISZERO PUSH2 0xC4D JUMPI PUSH1 0x40 MLOAD PUSH4 0x402BC007 PUSH1 0xE0 SHL DUP2 MSTORE PUSH1 0x4 ADD PUSH1 0x40 MLOAD DUP1 SWAP2 SUB SWAP1 REVERT JUMPDEST PUSH2 0xC58 DUP2 PUSH1 0x1 PUSH2 0x175F JUMP JUMPDEST PUSH2 0xC61 PUSH1 0x1 DUP1 SSTORE JUMP JUMPDEST POP JUMP JUMPDEST PUSH2 0xC6C PUSH2 0x170B JUMP JUMPDEST PUSH1 0x2 DUP2 PUSH1 0xFF AND GT ISZERO PUSH2 0xC91 JUMPI PUSH1 0x40 MLOAD PUSH4 0x357013B PUSH1 0xE5 SHL DUP2 MSTORE PUSH1 0x4 ADD PUSH1 0x40 MLOAD DUP1 SWAP2 SUB SWAP1 REVERT JUMPDEST PUSH0 PUSH1 0xFF DUP3 AND ISZERO PUSH2 0xCC2 JUMPI DUP2 PUSH1 0xFF AND PUSH1 0x1 EQ PUSH2 0xCB4 JUMPI PUSH8 0x4563918244F40000 PUSH2 0xCCC JUMP JUMPDEST PUSH8 0x1BC16D674EC80000 PUSH2 0xCCC JUMP JUMPDEST PUSH8 0x6F05B59D3B20000 JUMPDEST SWAP1 POP DUP1 CALLVALUE LT ISZERO PUSH2 0xCEF JUMPI PUSH1 0x40 MLOAD PUSH4 0x162908E3 PUSH1 0xE1 SHL DUP2 MSTORE PUSH1 0x4 ADD PUSH1 0x40 MLOAD DUP1 SWAP2 SUB SWAP1 REVERT JUMPDEST DUP1 PUSH1 0x6 PUSH0 DUP3 DUP3 SLOAD PUSH2 0xD00 SWAP2 SWAP1 PUSH2 0x20DA JUMP JUMPDEST SWAP1 SWAP2 SSTORE POP POP PUSH1 0x40 MLOAD DUP2 DUP2 MSTORE PUSH32 0xE10EA266A27B78053A79222B9455667694CA104E5128E0C95834949B33ACB5DD SWAP1 PUSH1 0x20 ADD PUSH1 0x40 MLOAD DUP1 SWAP2 SUB SWAP1 LOG1 PUSH0 PUSH2 0xD43 DUP3 CALLVALUE PUSH2 0x23A5 JUMP JUMPDEST SWAP1 POP DUP1 ISZERO PUSH2 0xDD2 JUMPI PUSH1 0x40 MLOAD PUSH0 SWAP1 CALLER SWAP1 DUP4 SWAP1 DUP4 DUP2 DUP2 DUP2 DUP6 DUP8 GAS CALL SWAP3 POP POP POP RETURNDATASIZE DUP1 PUSH0 DUP2 EQ PUSH2 0xD8A JUMPI PUSH1 0x40 MLOAD SWAP2 POP PUSH1 0x1F NOT PUSH1 0x3F RETURNDATASIZE ADD AND DUP3 ADD PUSH1 0x40 MSTORE RETURNDATASIZE DUP3 MSTORE RETURNDATASIZE PUSH0 PUSH1 0x20 DUP5 ADD RETURNDATACOPY PUSH2 0xD8F JUMP JUMPDEST PUSH1 0x60 SWAP2 POP JUMPDEST POP POP SWAP1 POP DUP1 PUSH2 0xDD0 JUMPI PUSH1 0x40 MLOAD PUSH3 0x461BCD PUSH1 0xE5 SHL DUP2 MSTORE PUSH1 0x20 PUSH1 0x4 DUP3 ADD MSTORE PUSH1 0xD PUSH1 0x24 DUP3 ADD MSTORE PUSH13 0x1499599D5B990819985A5B1959 PUSH1 0x9A SHL PUSH1 0x44 DUP3 ADD MSTORE PUSH1 0x64 ADD PUSH2 0x92C JUMP JUMPDEST POP JUMPDEST PUSH1 0x40 DUP1 MLOAD PUSH1 0xFF DUP6 AND DUP2 MSTORE PUSH1 0x20 DUP2 ADD DUP5 SWAP1 MSTORE CALLER SWAP2 PUSH32 0xF69A4FE943FE6A190CF6AF29A3C959C939584665A9FE3CA31548C2A50A9DA67D SWAP2 ADD PUSH2 0x970 JUMP JUMPDEST PUSH2 0xE15 PUSH2 0x1735 JUMP JUMPDEST PUSH0 DUP1 JUMPDEST DUP3 DUP2 LT ISZERO PUSH2 0xE5B JUMPI PUSH0 DUP5 DUP5 DUP4 DUP2 DUP2 LT PUSH2 0xE33 JUMPI PUSH2 0xE33 PUSH2 0x23B8 JUMP JUMPDEST SWAP1 POP PUSH1 0x20 MUL ADD CALLDATALOAD SWAP1 POP PUSH2 0xE46 DUP2 CALLER PUSH2 0x19C0 JUMP JUMPDEST PUSH2 0xE50 SWAP1 DUP5 PUSH2 0x20DA JUMP JUMPDEST SWAP3 POP POP PUSH1 0x1 ADD PUSH2 0xE18 JUMP JUMPDEST POP DUP1 PUSH0 SUB PUSH2 0xE7C JUMPI PUSH1 0x40 MLOAD PUSH4 0x374C9343 PUSH1 0xE1 SHL DUP2 MSTORE PUSH1 0x4 ADD PUSH1 0x40 MLOAD DUP1 SWAP2 SUB SWAP1 REVERT JUMPDEST CALLER PUSH0 SWAP1 DUP2 MSTORE PUSH1 0xA PUSH1 0x20 MSTORE PUSH1 0x40 DUP2 KECCAK256 DUP1 SLOAD DUP4 SWAP3 SWAP1 PUSH2 0xE9A SWAP1 DUP5 SWAP1 PUSH2 0x20DA JUMP JUMPDEST SWAP1 SWAP2 SSTORE POP POP PUSH1 0x40 MLOAD PUSH0 SWAP1 CALLER SWAP1 DUP4 SWAP1 DUP4 DUP2 DUP2 DUP2 DUP6 DUP8 GAS CALL SWAP3 POP POP POP RETURNDATASIZE DUP1 PUSH0 DUP2 EQ PUSH2 0xEDE JUMPI PUSH1 0x40 MLOAD SWAP2 POP PUSH1 0x1F NOT PUSH1 0x3F RETURNDATASIZE ADD AND DUP3 ADD PUSH1 0x40 MSTORE RETURNDATASIZE DUP3 MSTORE RETURNDATASIZE PUSH0 PUSH1 0x20 DUP5 ADD RETURNDATACOPY PUSH2 0xEE3 JUMP JUMPDEST PUSH1 0x60 SWAP2 POP JUMPDEST POP POP SWAP1 POP DUP1 PUSH2 0xF2C JUMPI PUSH1 0x40 MLOAD PUSH3 0x461BCD PUSH1 0xE5 SHL DUP2 MSTORE PUSH1 0x20 PUSH1 0x4 DUP3 ADD MSTORE PUSH1 0x15 PUSH1 0x24 DUP3 ADD MSTORE PUSH21 0x10DB185A5B481D1C985B9CD9995C8819985A5B1959 PUSH1 0x5A SHL PUSH1 0x44 DUP3 ADD MSTORE PUSH1 0x64 ADD PUSH2 0x92C JUMP JUMPDEST CALLER PUSH1 0x1 PUSH1 0x1 PUSH1 0xA0 SHL SUB AND PUSH32 0xCF57E0980467C849ACD2A0022186411515F6FF47E23496846234EABA46FACCFB DUP6 DUP6 DUP6 PUSH1 0x40 MLOAD PUSH2 0xF69 SWAP4 SWAP3 SWAP2 SWAP1 PUSH2 0x23CC JUMP JUMPDEST PUSH1 0x40 MLOAD DUP1 SWAP2 SUB SWAP1 LOG2 POP POP PUSH2 0xF7C PUSH1 0x1 DUP1 SSTORE JUMP JUMPDEST POP POP JUMP JUMPDEST PUSH2 0xF88 PUSH2 0x15C1 JUMP JUMPDEST DUP1 PUSH0 SUB PUSH2 0xFA8 JUMPI PUSH1 0x40 MLOAD PUSH4 0x162908E3 PUSH1 0xE1 SHL DUP2 MSTORE PUSH1 0x4 ADD PUSH1 0x40 MLOAD DUP1 SWAP2 SUB SWAP1 REVERT JUMPDEST PUSH1 0x5 DUP2 SWAP1 SSTORE PUSH1 0x40 MLOAD DUP2 DUP2 MSTORE PUSH32 0xBE054849FE210C446A3B3F68394753F210607326B38581DC64BD2E94A87F0182 SWAP1 PUSH1 0x20 ADD PUSH2 0xBCD JUMP JUMPDEST PUSH2 0xFE5 PUSH2 0x15C1 JUMP JUMPDEST PUSH2 0xBE8 PUSH0 PUSH2 0x1D30 JUMP JUMPDEST PUSH2 0xFF6 PUSH2 0x170B JUMP JUMPDEST PUSH1 0x2 SLOAD PUSH0 SUB PUSH2 0x1018 JUMPI PUSH1 0x40 MLOAD PUSH4 0x23A71B87 PUSH1 0xE2 SHL DUP2 MSTORE PUSH1 0x4 ADD PUSH1 0x40 MLOAD DUP1 SWAP2 SUB SWAP1 REVERT JUMPDEST PUSH1 0x2 SLOAD PUSH0 SWAP1 DUP2 MSTORE PUSH1 0x7 PUSH1 0x20 MSTORE PUSH1 0x40 SWAP1 KECCAK256 PUSH1 0x1 DUP2 ADD SLOAD TIMESTAMP LT ISZERO PUSH2 0x104D JUMPI PUSH1 0x40 MLOAD PUSH4 0x402BC007 PUSH1 0xE0 SHL DUP2 MSTORE PUSH1 0x4 ADD PUSH1 0x40 MLOAD DUP1 SWAP2 SUB SWAP1 REVERT JUMPDEST PUSH1 0x4 DUP2 ADD SLOAD ISZERO PUSH2 0x106F JUMPI PUSH1 0x40 MLOAD PUSH3 0x4049E3 PUSH1 0xE4 SHL DUP2 MSTORE PUSH1 0x4 ADD PUSH1 0x40 MLOAD DUP1 SWAP2 SUB SWAP1 REVERT JUMPDEST PUSH0 PUSH2 0x1078 PUSH2 0x1D7F JUMP JUMPDEST PUSH1 0x4 DUP4 ADD DUP2 SWAP1 SSTORE PUSH1 0x2 SLOAD PUSH1 0x40 MLOAD DUP3 DUP2 MSTORE SWAP2 SWAP3 POP SWAP1 PUSH32 0xEEF94CBDA40AA01B9B02B7DBD6075CAA3662C0FABF77A84ED674B09B0FF9CB1E SWAP1 PUSH1 0x20 ADD PUSH1 0x40 MLOAD DUP1 SWAP2 SUB SWAP1 LOG2 POP POP JUMP JUMPDEST PUSH2 0x10C5 PUSH2 0x170B JUMP JUMPDEST PUSH2 0x10CD PUSH2 0x1735 JUMP JUMPDEST PUSH1 0x2 SLOAD PUSH0 SUB PUSH2 0x10EF JUMPI PUSH1 0x40 MLOAD PUSH4 0x23A71B87 PUSH1 0xE2 SHL DUP2 MSTORE PUSH1 0x4 ADD PUSH1 0x40 MLOAD DUP1 SWAP2 SUB SWAP1 REVERT JUMPDEST PUSH1 0x2 DUP1 SLOAD PUSH0 SWAP1 DUP2 MSTORE PUSH1 0x7 PUSH1 0x20 MSTORE PUSH1 0x40 SWAP1 KECCAK256 SWAP1 DUP2 ADD SLOAD TIMESTAMP LT ISZERO PUSH2 0x1124 JUMPI PUSH1 0x40 MLOAD PUSH4 0x6218B969 PUSH1 0xE1 SHL DUP2 MSTORE PUSH1 0x4 ADD PUSH1 0x40 MLOAD DUP1 SWAP2 SUB SWAP1 REVERT JUMPDEST PUSH1 0xB DUP2 ADD SLOAD PUSH1 0xFF AND ISZERO PUSH2 0x114A JUMPI PUSH1 0x40 MLOAD PUSH4 0x298EF61B PUSH1 0xE2 SHL DUP2 MSTORE PUSH1 0x4 ADD PUSH1 0x40 MLOAD DUP1 SWAP2 SUB SWAP1 REVERT JUMPDEST DUP1 PUSH1 0x4 ADD SLOAD PUSH0 SUB PUSH2 0x116E JUMPI PUSH1 0x40 MLOAD PUSH4 0x4E7E4C0B PUSH1 0xE0 SHL DUP2 MSTORE PUSH1 0x4 ADD PUSH1 0x40 MLOAD DUP1 SWAP2 SUB SWAP1 REVERT JUMPDEST PUSH2 0x1176 PUSH2 0x1D7F JUMP JUMPDEST PUSH1 0x5 DUP3 ADD SSTORE PUSH1 0xB DUP2 ADD DUP1 SLOAD PUSH1 0xFF NOT AND PUSH1 0x1 OR SWAP1 SSTORE PUSH1 0x2 SLOAD PUSH0 SWAP1 DUP2 SWAP1 DUP2 SWAP1 DUP2 SWAP1 PUSH2 0x119E SWAP1 PUSH2 0x1EAA JUMP JUMPDEST PUSH1 0xB DUP10 ADD DUP1 SLOAD SWAP5 SWAP9 POP SWAP3 SWAP7 POP SWAP1 SWAP5 POP SWAP3 POP DUP6 SWAP2 PUSH2 0xFF00 NOT AND PUSH2 0x100 DUP4 PUSH1 0x2 DUP2 GT ISZERO PUSH2 0x11CB JUMPI PUSH2 0x11CB PUSH2 0x2201 JUMP JUMPDEST MUL OR SWAP1 SSTORE POP PUSH1 0xA DUP6 ADD DUP4 SWAP1 SSTORE PUSH1 0x9 DUP6 ADD DUP2 SWAP1 SSTORE DUP2 ISZERO PUSH2 0x122E JUMPI DUP2 PUSH1 0x6 PUSH0 DUP3 DUP3 SLOAD PUSH2 0x11F5 SWAP2 SWAP1 PUSH2 0x20DA JUMP JUMPDEST SWAP1 SWAP2 SSTORE POP POP PUSH1 0x40 MLOAD DUP3 DUP2 MSTORE PUSH32 0xE10EA266A27B78053A79222B9455667694CA104E5128E0C95834949B33ACB5DD SWAP1 PUSH1 0x20 ADD PUSH1 0x40 MLOAD DUP1 SWAP2 SUB SWAP1 LOG1 JUMPDEST PUSH1 0x2 SLOAD PUSH32 0xFA8970B52397CDC9AE50AEB762DD64A9D17704FE4725ED1EAD14E1C1B55FF0EC DUP7 PUSH1 0x5 ADD SLOAD DUP7 PUSH1 0x40 MLOAD PUSH2 0x1266 SWAP3 SWAP2 SWAP1 PUSH2 0x2408 JUMP JUMPDEST PUSH1 0x40 MLOAD DUP1 SWAP2 SUB SWAP1 LOG2 PUSH2 0x1285 PUSH1 0x2 SLOAD PUSH1 0x1 PUSH2 0x1280 SWAP2 SWAP1 PUSH2 0x20DA JUMP JUMPDEST PUSH2 0x1641 JUMP JUMPDEST POP POP POP POP POP PUSH2 0xBE8 PUSH1 0x1 DUP1 SSTORE JUMP JUMPDEST PUSH2 0x129B PUSH2 0x15C1 JUMP JUMPDEST PUSH0 DUP2 DUP2 MSTORE PUSH1 0x7 PUSH1 0x20 MSTORE PUSH1 0x40 SWAP1 KECCAK256 PUSH1 0xB DUP2 ADD SLOAD PUSH1 0xFF AND ISZERO PUSH2 0x12CE JUMPI PUSH1 0x40 MLOAD PUSH4 0x298EF61B PUSH1 0xE2 SHL DUP2 MSTORE PUSH1 0x4 ADD PUSH1 0x40 MLOAD DUP1 SWAP2 SUB SWAP1 REVERT JUMPDEST PUSH1 0x2 DUP2 ADD SLOAD PUSH2 0x12DF SWAP1 PUSH2 0xE10 PUSH2 0x20DA JUMP JUMPDEST TIMESTAMP LT ISZERO PUSH2 0x12FE JUMPI PUSH1 0x40 MLOAD PUSH3 0x4049E3 PUSH1 0xE4 SHL DUP2 MSTORE PUSH1 0x4 ADD PUSH1 0x40 MLOAD DUP1 SWAP2 SUB SWAP1 REVERT JUMPDEST PUSH1 0xB DUP2 ADD DUP1 SLOAD PUSH2 0xFFFF NOT AND PUSH1 0x1 OR SWAP1 SSTORE PUSH0 PUSH1 0xA DUP3 ADD DUP2 SWAP1 SSTORE PUSH1 0x9 DUP3 ADD DUP2 SWAP1 SSTORE PUSH1 0x40 MLOAD DUP4 SWAP2 PUSH32 0xBF7AEFF89CF7A4C3D0145879E39AA6A19E8E64ED585090EF86BF31F4D2AE57BF SWAP2 LOG2 POP POP JUMP JUMPDEST PUSH2 0x1351 PUSH2 0x15C1 JUMP JUMPDEST PUSH2 0xBE8 PUSH2 0x1FEE JUMP JUMPDEST PUSH0 DUP3 DUP2 MSTORE PUSH1 0x9 PUSH1 0x20 SWAP1 DUP2 MSTORE PUSH1 0x40 DUP1 DUP4 KECCAK256 PUSH1 0x1 PUSH1 0x1 PUSH1 0xA0 SHL SUB DUP6 AND DUP5 MSTORE SWAP1 SWAP2 MSTORE SWAP1 KECCAK256 SLOAD PUSH1 0xFF AND JUMPDEST SWAP3 SWAP2 POP POP JUMP JUMPDEST PUSH0 PUSH2 0x138E PUSH2 0x1D7F JUMP JUMPDEST SWAP1 POP SWAP1 JUMP JUMPDEST PUSH2 0x139B PUSH2 0x2059 JUMP JUMPDEST PUSH0 DUP3 DUP2 MSTORE PUSH1 0x7 PUSH1 0x20 DUP2 DUP2 MSTORE PUSH1 0x40 SWAP3 DUP4 SWAP1 KECCAK256 DUP4 MLOAD PUSH2 0x1A0 DUP2 ADD DUP6 MSTORE DUP2 SLOAD DUP2 MSTORE PUSH1 0x1 DUP3 ADD SLOAD SWAP3 DUP2 ADD SWAP3 SWAP1 SWAP3 MSTORE PUSH1 0x2 DUP1 DUP3 ADD SLOAD SWAP5 DUP4 ADD SWAP5 SWAP1 SWAP5 MSTORE PUSH1 0x3 DUP2 ADD SLOAD PUSH1 0x60 DUP4 ADD MSTORE PUSH1 0x4 DUP2 ADD SLOAD PUSH1 0x80 DUP4 ADD MSTORE PUSH1 0x5 DUP2 ADD SLOAD PUSH1 0xA0 DUP4 ADD MSTORE PUSH1 0x6 DUP2 ADD SLOAD PUSH1 0xC0 DUP4 ADD MSTORE SWAP2 DUP3 ADD SLOAD PUSH1 0xE0 DUP3 ADD MSTORE PUSH1 0x8 DUP3 ADD SLOAD PUSH2 0x100 DUP1 DUP4 ADD SWAP2 SWAP1 SWAP2 MSTORE PUSH1 0x9 DUP4 ADD SLOAD PUSH2 0x120 DUP4 ADD MSTORE PUSH1 0xA DUP4 ADD SLOAD PUSH2 0x140 DUP4 ADD MSTORE PUSH1 0xB DUP4 ADD SLOAD PUSH1 0xFF DUP1 DUP3 AND ISZERO ISZERO PUSH2 0x160 DUP6 ADD MSTORE SWAP3 SWAP5 PUSH2 0x180 DUP7 ADD SWAP4 SWAP3 SWAP1 SWAP2 DIV SWAP1 SWAP2 AND SWAP1 DUP2 GT ISZERO PUSH2 0x1459 JUMPI PUSH2 0x1459 PUSH2 0x2201 JUMP JUMPDEST PUSH1 0x2 DUP2 GT ISZERO PUSH2 0x146A JUMPI PUSH2 0x146A PUSH2 0x2201 JUMP JUMPDEST SWAP1 MSTORE POP SWAP3 SWAP2 POP POP JUMP JUMPDEST PUSH2 0x147B PUSH2 0x170B JUMP JUMPDEST PUSH2 0x1483 PUSH2 0x1735 JUMP JUMPDEST CALLER EXTCODESIZE ISZERO PUSH2 0x14A3 JUMPI PUSH1 0x40 MLOAD PUSH4 0x402BC007 PUSH1 0xE0 SHL DUP2 MSTORE PUSH1 0x4 ADD PUSH1 0x40 MLOAD DUP1 SWAP2 SUB SWAP1 REVERT JUMPDEST PUSH2 0xC58 DUP2 PUSH1 0x2 PUSH2 0x175F JUMP JUMPDEST PUSH1 0x40 DUP1 MLOAD DUP1 DUP3 ADD DUP3 MSTORE PUSH0 DUP1 DUP3 MSTORE PUSH1 0x20 DUP1 DUP4 ADD DUP3 SWAP1 MSTORE DUP6 DUP3 MSTORE PUSH1 0x8 DUP2 MSTORE DUP4 DUP3 KECCAK256 PUSH1 0x1 PUSH1 0x1 PUSH1 0xA0 SHL SUB DUP7 AND DUP4 MSTORE SWAP1 MSTORE DUP3 SWAP1 KECCAK256 DUP3 MLOAD DUP1 DUP5 ADD SWAP1 SWAP4 MSTORE DUP1 SLOAD SWAP2 SWAP3 SWAP2 DUP3 SWAP1 PUSH1 0xFF AND PUSH1 0x2 DUP2 GT ISZERO PUSH2 0x1501 JUMPI PUSH2 0x1501 PUSH2 0x2201 JUMP JUMPDEST PUSH1 0x2 DUP2 GT ISZERO PUSH2 0x1512 JUMPI PUSH2 0x1512 PUSH2 0x2201 JUMP JUMPDEST DUP2 MSTORE PUSH1 0x20 ADD PUSH1 0x1 DUP3 ADD SLOAD DUP2 MSTORE POP POP SWAP1 POP SWAP3 SWAP2 POP POP JUMP JUMPDEST PUSH2 0x1530 PUSH2 0x15C1 JUMP JUMPDEST PUSH1 0x3 SLOAD DUP2 LT PUSH2 0x1552 JUMPI PUSH1 0x40 MLOAD PUSH4 0x162908E3 PUSH1 0xE1 SHL DUP2 MSTORE PUSH1 0x4 ADD PUSH1 0x40 MLOAD DUP1 SWAP2 SUB SWAP1 REVERT JUMPDEST PUSH1 0x4 DUP2 SWAP1 SSTORE PUSH1 0x40 MLOAD DUP2 DUP2 MSTORE PUSH32 0xCC6FA7A3021388D141719D37C1605733E6AAD6EBA3B17866AFA98A0CFE23F355 SWAP1 PUSH1 0x20 ADD PUSH2 0xBCD JUMP JUMPDEST PUSH2 0x158F PUSH2 0x15C1 JUMP JUMPDEST PUSH1 0x1 PUSH1 0x1 PUSH1 0xA0 SHL SUB DUP2 AND PUSH2 0x15B8 JUMPI PUSH1 0x40 MLOAD PUSH4 0x1E4FBDF7 PUSH1 0xE0 SHL DUP2 MSTORE PUSH0 PUSH1 0x4 DUP3 ADD MSTORE PUSH1 0x24 ADD PUSH2 0x92C JUMP JUMPDEST PUSH2 0xC61 DUP2 PUSH2 0x1D30 JUMP JUMPDEST PUSH0 SLOAD PUSH1 0x1 PUSH1 0x1 PUSH1 0xA0 SHL SUB AND CALLER EQ PUSH2 0xBE8 JUMPI PUSH1 0x40 MLOAD PUSH4 0x118CDAA7 PUSH1 0xE0 SHL DUP2 MSTORE CALLER PUSH1 0x4 DUP3 ADD MSTORE PUSH1 0x24 ADD PUSH2 0x92C JUMP JUMPDEST PUSH2 0x15F5 PUSH2 0x2030 JUMP JUMPDEST PUSH0 DUP1 SLOAD PUSH1 0xFF PUSH1 0xA0 SHL NOT AND SWAP1 SSTORE PUSH32 0x5DB9EE0A495BF2E6FF9C91A7834C1BA4FDD244A5E8AA4E537BD38AEAE4B073AA CALLER JUMPDEST PUSH1 0x40 MLOAD PUSH1 0x1 PUSH1 0x1 PUSH1 0xA0 SHL SUB SWAP1 SWAP2 AND DUP2 MSTORE PUSH1 0x20 ADD PUSH1 0x40 MLOAD DUP1 SWAP2 SUB SWAP1 LOG1 JUMP JUMPDEST PUSH0 PUSH2 0x164A PUSH2 0x1D7F JUMP JUMPDEST PUSH0 DUP4 DUP2 MSTORE PUSH1 0x7 PUSH1 0x20 MSTORE PUSH1 0x40 SWAP1 KECCAK256 TIMESTAMP DUP2 SSTORE PUSH1 0x4 SLOAD PUSH1 0x3 SLOAD SWAP3 SWAP4 POP SWAP1 SWAP2 PUSH2 0x166F SWAP2 SWAP1 PUSH2 0x23A5 JUMP JUMPDEST PUSH2 0x1679 SWAP1 TIMESTAMP PUSH2 0x20DA JUMP JUMPDEST PUSH1 0x1 DUP3 ADD SSTORE PUSH1 0x3 SLOAD PUSH2 0x168B SWAP1 TIMESTAMP PUSH2 0x20DA JUMP JUMPDEST PUSH1 0x2 DUP3 DUP2 ADD SWAP2 SWAP1 SWAP2 SSTORE PUSH1 0x3 DUP3 ADD DUP4 SWAP1 SSTORE PUSH0 PUSH1 0x4 DUP4 ADD DUP2 SWAP1 SSTORE PUSH1 0x5 DUP4 ADD DUP2 SWAP1 SSTORE PUSH1 0x6 DUP4 ADD DUP2 SWAP1 SSTORE PUSH1 0x7 DUP4 ADD DUP2 SWAP1 SSTORE PUSH1 0x8 DUP4 ADD DUP2 SWAP1 SSTORE PUSH1 0x9 DUP4 ADD DUP2 SWAP1 SSTORE PUSH1 0xA DUP4 ADD DUP2 SWAP1 SSTORE PUSH1 0xB DUP4 ADD DUP1 SLOAD PUSH2 0xFFFF NOT AND SWAP1 SSTORE SWAP1 DUP5 SWAP1 SSTORE PUSH1 0x40 MLOAD DUP5 SWAP2 PUSH32 0x939F42374AA9BF1D8D8CD56D8A9110CB040CD8DFEAE44080C6FCF2645E51B452 SWAP2 LOG2 POP POP POP JUMP JUMPDEST PUSH0 SLOAD PUSH1 0x1 PUSH1 0xA0 SHL SWAP1 DIV PUSH1 0xFF AND ISZERO PUSH2 0xBE8 JUMPI PUSH1 0x40 MLOAD PUSH4 0xD93C0665 PUSH1 0xE0 SHL DUP2 MSTORE PUSH1 0x4 ADD PUSH1 0x40 MLOAD DUP1 SWAP2 SUB SWAP1 REVERT JUMPDEST PUSH1 0x2 PUSH1 0x1 SLOAD SUB PUSH2 0x1758 JUMPI PUSH1 0x40 MLOAD PUSH4 0x3EE5AEB5 PUSH1 0xE0 SHL DUP2 MSTORE PUSH1 0x4 ADD PUSH1 0x40 MLOAD DUP1 SWAP2 SUB SWAP1 REVERT JUMPDEST PUSH1 0x2 PUSH1 0x1 SSTORE JUMP JUMPDEST PUSH1 0x2 SLOAD DUP3 EQ PUSH2 0x1781 JUMPI PUSH1 0x40 MLOAD PUSH4 0xD5B25B63 PUSH1 0xE0 SHL DUP2 MSTORE PUSH1 0x4 ADD PUSH1 0x40 MLOAD DUP1 SWAP2 SUB SWAP1 REVERT JUMPDEST PUSH0 DUP3 DUP2 MSTORE PUSH1 0x7 PUSH1 0x20 MSTORE PUSH1 0x40 SWAP1 KECCAK256 DUP1 SLOAD TIMESTAMP LT DUP1 PUSH2 0x17A1 JUMPI POP DUP1 PUSH1 0x1 ADD SLOAD TIMESTAMP LT ISZERO JUMPDEST ISZERO PUSH2 0x17BF JUMPI PUSH1 0x40 MLOAD PUSH4 0x402BC007 PUSH1 0xE0 SHL DUP2 MSTORE PUSH1 0x4 ADD PUSH1 0x40 MLOAD DUP1 SWAP2 SUB SWAP1 REVERT JUMPDEST PUSH1 0x5 SLOAD CALLVALUE LT ISZERO PUSH2 0x17E2 JUMPI PUSH1 0x40 MLOAD PUSH4 0x162908E3 PUSH1 0xE1 SHL DUP2 MSTORE PUSH1 0x4 ADD PUSH1 0x40 MLOAD DUP1 SWAP2 SUB SWAP1 REVERT JUMPDEST PUSH1 0xB DUP2 ADD SLOAD PUSH1 0xFF AND ISZERO PUSH2 0x1808 JUMPI PUSH1 0x40 MLOAD PUSH4 0x402BC007 PUSH1 0xE0 SHL DUP2 MSTORE PUSH1 0x4 ADD PUSH1 0x40 MLOAD DUP1 SWAP2 SUB SWAP1 REVERT JUMPDEST PUSH0 DUP3 PUSH1 0x2 DUP2 GT ISZERO PUSH2 0x181B JUMPI PUSH2 0x181B PUSH2 0x2201 JUMP JUMPDEST SUB PUSH2 0x1839 JUMPI PUSH1 0x40 MLOAD PUSH4 0x162908E3 PUSH1 0xE1 SHL DUP2 MSTORE PUSH1 0x4 ADD PUSH1 0x40 MLOAD DUP1 SWAP2 SUB SWAP1 REVERT JUMPDEST PUSH0 DUP4 DUP2 MSTORE PUSH1 0x8 PUSH1 0x20 SWAP1 DUP2 MSTORE PUSH1 0x40 DUP1 DUP4 KECCAK256 CALLER DUP5 MSTORE SWAP1 SWAP2 MSTORE SWAP1 KECCAK256 PUSH1 0x1 DUP2 ADD SLOAD ISZERO PUSH2 0x18A6 JUMPI DUP3 PUSH1 0x2 DUP2 GT ISZERO PUSH2 0x186D JUMPI PUSH2 0x186D PUSH2 0x2201 JUMP JUMPDEST DUP2 SLOAD PUSH1 0xFF AND PUSH1 0x2 DUP2 GT ISZERO PUSH2 0x1883 JUMPI PUSH2 0x1883 PUSH2 0x2201 JUMP JUMPDEST EQ PUSH2 0x18A1 JUMPI PUSH1 0x40 MLOAD PUSH4 0x162908E3 PUSH1 0xE1 SHL DUP2 MSTORE PUSH1 0x4 ADD PUSH1 0x40 MLOAD DUP1 SWAP2 SUB SWAP1 REVERT JUMPDEST PUSH2 0x18CA JUMP JUMPDEST DUP1 SLOAD DUP4 SWAP1 DUP3 SWAP1 PUSH1 0xFF NOT AND PUSH1 0x1 DUP4 PUSH1 0x2 DUP2 GT ISZERO PUSH2 0x18C4 JUMPI PUSH2 0x18C4 PUSH2 0x2201 JUMP JUMPDEST MUL OR SWAP1 SSTORE POP JUMPDEST CALLVALUE DUP2 PUSH1 0x1 ADD PUSH0 DUP3 DUP3 SLOAD PUSH2 0x18DD SWAP2 SWAP1 PUSH2 0x20DA JUMP JUMPDEST SWAP3 POP POP DUP2 SWAP1 SSTORE POP CALLVALUE DUP3 PUSH1 0x6 ADD PUSH0 DUP3 DUP3 SLOAD PUSH2 0x18F7 SWAP2 SWAP1 PUSH2 0x20DA JUMP JUMPDEST SWAP1 SWAP2 SSTORE POP PUSH1 0x1 SWAP1 POP DUP4 PUSH1 0x2 DUP2 GT ISZERO PUSH2 0x1911 JUMPI PUSH2 0x1911 PUSH2 0x2201 JUMP JUMPDEST SUB PUSH2 0x196A JUMPI CALLVALUE DUP3 PUSH1 0x7 ADD PUSH0 DUP3 DUP3 SLOAD PUSH2 0x1929 SWAP2 SWAP1 PUSH2 0x20DA JUMP JUMPDEST SWAP1 SWAP2 SSTORE POP POP PUSH1 0x40 MLOAD CALLVALUE DUP2 MSTORE DUP5 SWAP1 CALLER SWAP1 PUSH32 0x438122D8CFF518D18388099A5181F0D17A12B4F1B55FAEDF6E4A6ACEE0060C12 SWAP1 PUSH1 0x20 ADD PUSH1 0x40 MLOAD DUP1 SWAP2 SUB SWAP1 LOG3 PUSH2 0x19BA JUMP JUMPDEST CALLVALUE DUP3 PUSH1 0x8 ADD PUSH0 DUP3 DUP3 SLOAD PUSH2 0x197D SWAP2 SWAP1 PUSH2 0x20DA JUMP JUMPDEST SWAP1 SWAP2 SSTORE POP POP PUSH1 0x40 MLOAD CALLVALUE DUP2 MSTORE DUP5 SWAP1 CALLER SWAP1 PUSH32 0xD8C1FE3E67AB767116A81F122B83C2557A8C2564019CB7C4F83DE1AEB1F1F0D SWAP1 PUSH1 0x20 ADD PUSH1 0x40 MLOAD DUP1 SWAP2 SUB SWAP1 LOG3 JUMPDEST POP POP POP POP JUMP JUMPDEST PUSH0 DUP3 DUP2 MSTORE PUSH1 0x7 PUSH1 0x20 DUP2 DUP2 MSTORE PUSH1 0x40 DUP1 DUP5 KECCAK256 DUP2 MLOAD PUSH2 0x1A0 DUP2 ADD DUP4 MSTORE DUP2 SLOAD DUP2 MSTORE PUSH1 0x1 DUP3 ADD SLOAD SWAP4 DUP2 ADD SWAP4 SWAP1 SWAP4 MSTORE PUSH1 0x2 DUP1 DUP3 ADD SLOAD SWAP3 DUP5 ADD SWAP3 SWAP1 SWAP3 MSTORE PUSH1 0x3 DUP2 ADD SLOAD PUSH1 0x60 DUP5 ADD MSTORE PUSH1 0x4 DUP2 ADD SLOAD PUSH1 0x80 DUP5 ADD MSTORE PUSH1 0x5 DUP2 ADD SLOAD PUSH1 0xA0 DUP5 ADD MSTORE PUSH1 0x6 DUP2 ADD SLOAD PUSH1 0xC0 DUP5 ADD MSTORE SWAP3 DUP4 ADD SLOAD PUSH1 0xE0 DUP4 ADD MSTORE PUSH1 0x8 DUP4 ADD SLOAD PUSH2 0x100 DUP1 DUP5 ADD SWAP2 SWAP1 SWAP2 MSTORE PUSH1 0x9 DUP5 ADD SLOAD PUSH2 0x120 DUP5 ADD MSTORE PUSH1 0xA DUP5 ADD SLOAD PUSH2 0x140 DUP5 ADD MSTORE PUSH1 0xB DUP5 ADD SLOAD PUSH1 0xFF DUP1 DUP3 AND ISZERO ISZERO PUSH2 0x160 DUP7 ADD MSTORE DUP7 SWAP6 SWAP4 PUSH2 0x180 DUP7 ADD SWAP4 SWAP1 SWAP3 DIV AND SWAP1 DUP2 GT ISZERO PUSH2 0x1A7B JUMPI PUSH2 0x1A7B PUSH2 0x2201 JUMP JUMPDEST PUSH1 0x2 DUP2 GT ISZERO PUSH2 0x1A8C JUMPI PUSH2 0x1A8C PUSH2 0x2201 JUMP JUMPDEST DUP2 MSTORE POP POP SWAP1 POP DUP1 PUSH2 0x160 ADD MLOAD PUSH2 0x1AA5 JUMPI PUSH0 SWAP2 POP POP PUSH2 0x137F JUMP JUMPDEST PUSH0 DUP5 DUP2 MSTORE PUSH1 0x9 PUSH1 0x20 SWAP1 DUP2 MSTORE PUSH1 0x40 DUP1 DUP4 KECCAK256 PUSH1 0x1 PUSH1 0x1 PUSH1 0xA0 SHL SUB DUP8 AND DUP5 MSTORE SWAP1 SWAP2 MSTORE SWAP1 KECCAK256 SLOAD PUSH1 0xFF AND ISZERO PUSH2 0x1AD8 JUMPI PUSH0 SWAP2 POP POP PUSH2 0x137F JUMP JUMPDEST PUSH0 DUP5 DUP2 MSTORE PUSH1 0x8 PUSH1 0x20 SWAP1 DUP2 MSTORE PUSH1 0x40 DUP1 DUP4 KECCAK256 PUSH1 0x1 PUSH1 0x1 PUSH1 0xA0 SHL SUB DUP8 AND DUP5 MSTORE SWAP1 SWAP2 MSTORE DUP1 DUP3 KECCAK256 DUP2 MLOAD DUP1 DUP4 ADD SWAP1 SWAP3 MSTORE DUP1 SLOAD DUP3 SWAP1 PUSH1 0xFF AND PUSH1 0x2 DUP2 GT ISZERO PUSH2 0x1B1A JUMPI PUSH2 0x1B1A PUSH2 0x2201 JUMP JUMPDEST PUSH1 0x2 DUP2 GT ISZERO PUSH2 0x1B2B JUMPI PUSH2 0x1B2B PUSH2 0x2201 JUMP JUMPDEST DUP2 MSTORE PUSH1 0x20 ADD PUSH1 0x1 DUP3 ADD SLOAD DUP2 MSTORE POP POP SWAP1 POP DUP1 PUSH1 0x20 ADD MLOAD PUSH0 SUB PUSH2 0x1B50 JUMPI PUSH0 SWAP3 POP POP POP PUSH2 0x137F JUMP JUMPDEST PUSH0 DUP3 PUSH2 0x180 ADD MLOAD PUSH1 0x2 DUP2 GT ISZERO PUSH2 0x1B68 JUMPI PUSH2 0x1B68 PUSH2 0x2201 JUMP JUMPDEST SUB PUSH2 0x1BE8 JUMPI PUSH0 DUP6 DUP2 MSTORE PUSH1 0x9 PUSH1 0x20 SWAP1 DUP2 MSTORE PUSH1 0x40 DUP1 DUP4 KECCAK256 PUSH1 0x1 PUSH1 0x1 PUSH1 0xA0 SHL SUB DUP9 AND DUP1 DUP6 MSTORE SWAP1 DUP4 MSTORE SWAP3 DUP2 SWAP1 KECCAK256 DUP1 SLOAD PUSH1 0xFF NOT AND PUSH1 0x1 OR SWAP1 SSTORE SWAP1 DUP4 ADD MLOAD SWAP1 MLOAD DUP8 SWAP3 SWAP2 PUSH32 0x34FCBAC0073D7C3D388E51312FAF357774904998EEB8FCA628B9E6F65EE1CBF7 SWAP2 PUSH2 0x1BD3 SWAP2 DUP2 MSTORE PUSH1 0x20 ADD SWAP1 JUMP JUMPDEST PUSH1 0x40 MLOAD DUP1 SWAP2 SUB SWAP1 LOG3 PUSH1 0x20 ADD MLOAD SWAP2 POP PUSH2 0x137F SWAP1 POP JUMP JUMPDEST DUP2 PUSH2 0x180 ADD MLOAD PUSH1 0x2 DUP2 GT ISZERO PUSH2 0x1BFF JUMPI PUSH2 0x1BFF PUSH2 0x2201 JUMP JUMPDEST DUP2 MLOAD PUSH1 0x2 DUP2 GT ISZERO PUSH2 0x1C12 JUMPI PUSH2 0x1C12 PUSH2 0x2201 JUMP JUMPDEST EQ PUSH2 0x1C21 JUMPI PUSH0 SWAP3 POP POP POP PUSH2 0x137F JUMP JUMPDEST DUP2 PUSH2 0x120 ADD MLOAD PUSH0 SUB PUSH2 0x1C61 JUMPI POP POP POP PUSH0 DUP3 DUP2 MSTORE PUSH1 0x9 PUSH1 0x20 SWAP1 DUP2 MSTORE PUSH1 0x40 DUP1 DUP4 KECCAK256 PUSH1 0x1 PUSH1 0x1 PUSH1 0xA0 SHL SUB DUP6 AND DUP5 MSTORE SWAP1 SWAP2 MSTORE DUP2 KECCAK256 DUP1 SLOAD PUSH1 0xFF NOT AND PUSH1 0x1 OR SWAP1 SSTORE PUSH2 0x137F JUMP JUMPDEST PUSH0 DUP3 PUSH2 0x120 ADD MLOAD DUP4 PUSH2 0x140 ADD MLOAD DUP4 PUSH1 0x20 ADD MLOAD PUSH2 0x1C7D SWAP2 SWAP1 PUSH2 0x241C JUMP JUMPDEST PUSH2 0x1C87 SWAP2 SWAP1 PUSH2 0x2433 JUMP JUMPDEST SWAP1 POP DUP1 PUSH0 SUB PUSH2 0x1CC6 JUMPI POP POP POP PUSH0 DUP4 DUP2 MSTORE PUSH1 0x9 PUSH1 0x20 SWAP1 DUP2 MSTORE PUSH1 0x40 DUP1 DUP4 KECCAK256 PUSH1 0x1 PUSH1 0x1 PUSH1 0xA0 SHL SUB DUP7 AND DUP5 MSTORE SWAP1 SWAP2 MSTORE DUP2 KECCAK256 DUP1 SLOAD PUSH1 0xFF NOT AND PUSH1 0x1 OR SWAP1 SSTORE SWAP1 POP PUSH2 0x137F JUMP JUMPDEST PUSH0 DUP7 DUP2 MSTORE PUSH1 0x9 PUSH1 0x20 SWAP1 DUP2 MSTORE PUSH1 0x40 DUP1 DUP4 KECCAK256 PUSH1 0x1 PUSH1 0x1 PUSH1 0xA0 SHL SUB DUP10 AND DUP1 DUP6 MSTORE SWAP1 DUP4 MSTORE SWAP3 DUP2 SWAP1 KECCAK256 DUP1 SLOAD PUSH1 0xFF NOT AND PUSH1 0x1 OR SWAP1 SSTORE MLOAD DUP4 DUP2 MSTORE DUP9 SWAP3 SWAP2 PUSH32 0x34FCBAC0073D7C3D388E51312FAF357774904998EEB8FCA628B9E6F65EE1CBF7 SWAP2 ADD PUSH1 0x40 MLOAD DUP1 SWAP2 SUB SWAP1 LOG3 SWAP6 SWAP5 POP POP POP POP POP JUMP JUMPDEST PUSH0 DUP1 SLOAD PUSH1 0x1 PUSH1 0x1 PUSH1 0xA0 SHL SUB DUP4 DUP2 AND PUSH1 0x1 PUSH1 0x1 PUSH1 0xA0 SHL SUB NOT DUP4 AND DUP2 OR DUP5 SSTORE PUSH1 0x40 MLOAD SWAP2 SWAP1 SWAP3 AND SWAP3 DUP4 SWAP2 PUSH32 0x8BE0079C531659141344CD1FD0A4F28419497F9722A3DAAFE3B4186F6B6457E0 SWAP2 SWAP1 LOG3 POP POP JUMP JUMPDEST PUSH0 PUSH0 PUSH0 PUSH0 PUSH32 0x0 PUSH1 0x1 PUSH1 0x1 PUSH1 0xA0 SHL SUB AND PUSH4 0xFEAF968C PUSH1 0x40 MLOAD DUP2 PUSH4 0xFFFFFFFF AND PUSH1 0xE0 SHL DUP2 MSTORE PUSH1 0x4 ADD PUSH1 0xA0 PUSH1 0x40 MLOAD DUP1 DUP4 SUB DUP2 DUP7 GAS STATICCALL ISZERO DUP1 ISZERO PUSH2 0x1DDF JUMPI RETURNDATASIZE PUSH0 PUSH0 RETURNDATACOPY RETURNDATASIZE PUSH0 REVERT JUMPDEST POP POP POP POP PUSH1 0x40 MLOAD RETURNDATASIZE PUSH1 0x1F NOT PUSH1 0x1F DUP3 ADD AND DUP3 ADD DUP1 PUSH1 0x40 MSTORE POP DUP2 ADD SWAP1 PUSH2 0x1E03 SWAP2 SWAP1 PUSH2 0x2470 JUMP JUMPDEST SWAP5 POP SWAP5 POP POP SWAP4 POP POP PUSH0 DUP4 SGT PUSH2 0x1E2B JUMPI PUSH1 0x40 MLOAD PUSH4 0xE5EA8C65 PUSH1 0xE0 SHL DUP2 MSTORE PUSH1 0x4 ADD PUSH1 0x40 MLOAD DUP1 SWAP2 SUB SWAP1 REVERT JUMPDEST DUP2 PUSH0 SUB PUSH2 0x1E4B JUMPI PUSH1 0x40 MLOAD PUSH4 0xE5EA8C65 PUSH1 0xE0 SHL DUP2 MSTORE PUSH1 0x4 ADD PUSH1 0x40 MLOAD DUP1 SWAP2 SUB SWAP1 REVERT JUMPDEST PUSH2 0xE10 PUSH2 0x1E58 DUP4 TIMESTAMP PUSH2 0x23A5 JUMP JUMPDEST LT PUSH2 0x1E76 JUMPI PUSH1 0x40 MLOAD PUSH4 0xE5EA8C65 PUSH1 0xE0 SHL DUP2 MSTORE PUSH1 0x4 ADD PUSH1 0x40 MLOAD DUP1 SWAP2 SUB SWAP1 REVERT JUMPDEST DUP1 PUSH10 0xFFFFFFFFFFFFFFFFFFFF AND PUSH0 SUB PUSH2 0x1EA2 JUMPI PUSH1 0x40 MLOAD PUSH4 0xE5EA8C65 PUSH1 0xE0 SHL DUP2 MSTORE PUSH1 0x4 ADD PUSH1 0x40 MLOAD DUP1 SWAP2 SUB SWAP1 REVERT JUMPDEST POP SWAP1 SWAP3 SWAP2 POP POP JUMP JUMPDEST PUSH0 DUP2 DUP2 MSTORE PUSH1 0x7 PUSH1 0x20 MSTORE PUSH1 0x40 DUP2 KECCAK256 PUSH1 0x3 DUP2 ADD SLOAD PUSH1 0x5 DUP3 ADD SLOAD DUP4 SWAP3 DUP4 SWAP3 DUP4 SWAP3 SGT ISZERO PUSH2 0x1ED6 JUMPI PUSH1 0x1 SWAP5 POP PUSH2 0x1EFE JUMP JUMPDEST DUP1 PUSH1 0x3 ADD SLOAD DUP2 PUSH1 0x5 ADD SLOAD SLT ISZERO PUSH2 0x1EEF JUMPI PUSH1 0x2 SWAP5 POP PUSH2 0x1EFE JUMP JUMPDEST POP PUSH0 SWAP3 POP DUP3 SWAP2 POP DUP2 SWAP1 POP PUSH2 0x1FE7 JUMP JUMPDEST DUP1 PUSH1 0x6 ADD SLOAD PUSH0 SUB PUSH2 0x1F18 JUMPI POP PUSH0 SWAP3 POP DUP3 SWAP2 POP DUP2 SWAP1 POP PUSH2 0x1FE7 JUMP JUMPDEST PUSH1 0x1 DUP6 PUSH1 0x2 DUP2 GT ISZERO PUSH2 0x1F2C JUMPI PUSH2 0x1F2C PUSH2 0x2201 JUMP JUMPDEST EQ DUP1 ISZERO PUSH2 0x1F3C JUMPI POP PUSH0 DUP2 PUSH1 0x7 ADD SLOAD GT JUMPDEST ISZERO PUSH2 0x1F7A JUMPI PUSH1 0x8 DUP2 ADD SLOAD PUSH2 0x2710 PUSH2 0x1F54 PUSH1 0x64 DUP4 PUSH2 0x241C JUMP JUMPDEST PUSH2 0x1F5E SWAP2 SWAP1 PUSH2 0x2433 JUMP JUMPDEST SWAP4 POP PUSH2 0x1F6A DUP5 DUP3 PUSH2 0x23A5 JUMP JUMPDEST SWAP5 POP DUP2 PUSH1 0x7 ADD SLOAD SWAP3 POP POP POP PUSH2 0x1FE7 JUMP JUMPDEST PUSH1 0x2 DUP6 PUSH1 0x2 DUP2 GT ISZERO PUSH2 0x1F8E JUMPI PUSH2 0x1F8E PUSH2 0x2201 JUMP JUMPDEST EQ DUP1 ISZERO PUSH2 0x1F9E JUMPI POP PUSH0 DUP2 PUSH1 0x8 ADD SLOAD GT JUMPDEST ISZERO PUSH2 0x1FDC JUMPI PUSH1 0x7 DUP2 ADD SLOAD PUSH2 0x2710 PUSH2 0x1FB6 PUSH1 0x64 DUP4 PUSH2 0x241C JUMP JUMPDEST PUSH2 0x1FC0 SWAP2 SWAP1 PUSH2 0x2433 JUMP JUMPDEST SWAP4 POP PUSH2 0x1FCC DUP5 DUP3 PUSH2 0x23A5 JUMP JUMPDEST SWAP5 POP DUP2 PUSH1 0x8 ADD SLOAD SWAP3 POP POP POP PUSH2 0x1FE7 JUMP JUMPDEST POP PUSH0 SWAP3 POP DUP3 SWAP2 POP DUP2 SWAP1 POP JUMPDEST SWAP2 SWAP4 POP SWAP2 SWAP4 JUMP JUMPDEST PUSH2 0x1FF6 PUSH2 0x170B JUMP JUMPDEST PUSH0 DUP1 SLOAD PUSH1 0xFF PUSH1 0xA0 SHL NOT AND PUSH1 0x1 PUSH1 0xA0 SHL OR SWAP1 SSTORE PUSH32 0x62E78CEA01BEE320CD4E420270B5EA74000D11B0C9F74754EBDBFC544B05A258 PUSH2 0x1624 CALLER SWAP1 JUMP JUMPDEST PUSH0 SLOAD PUSH1 0x1 PUSH1 0xA0 SHL SWAP1 DIV PUSH1 0xFF AND PUSH2 0xBE8 JUMPI PUSH1 0x40 MLOAD PUSH4 0x8DFC202B PUSH1 0xE0 SHL DUP2 MSTORE PUSH1 0x4 ADD PUSH1 0x40 MLOAD DUP1 SWAP2 SUB SWAP1 REVERT JUMPDEST PUSH1 0x40 MLOAD DUP1 PUSH2 0x1A0 ADD PUSH1 0x40 MSTORE DUP1 PUSH0 DUP2 MSTORE PUSH1 0x20 ADD PUSH0 DUP2 MSTORE PUSH1 0x20 ADD PUSH0 DUP2 MSTORE PUSH1 0x20 ADD PUSH0 DUP2 MSTORE PUSH1 0x20 ADD PUSH0 DUP2 MSTORE PUSH1 0x20 ADD PUSH0 DUP2 MSTORE PUSH1 0x20 ADD PUSH0 DUP2 MSTORE PUSH1 0x20 ADD PUSH0 DUP2 MSTORE PUSH1 0x20 ADD PUSH0 DUP2 MSTORE PUSH1 0x20 ADD PUSH0 DUP2 MSTORE PUSH1 0x20 ADD PUSH0 DUP2 MSTORE PUSH1 0x20 ADD PUSH0 ISZERO ISZERO DUP2 MSTORE PUSH1 0x20 ADD PUSH0 PUSH1 0x2 DUP2 GT ISZERO PUSH2 0x20C1 JUMPI PUSH2 0x20C1 PUSH2 0x2201 JUMP JUMPDEST SWAP1 MSTORE SWAP1 JUMP JUMPDEST PUSH4 0x4E487B71 PUSH1 0xE0 SHL PUSH0 MSTORE PUSH1 0x11 PUSH1 0x4 MSTORE PUSH1 0x24 PUSH0 REVERT JUMPDEST DUP1 DUP3 ADD DUP1 DUP3 GT ISZERO PUSH2 0x137F JUMPI PUSH2 0x137F PUSH2 0x20C6 JUMP JUMPDEST PUSH1 0x1 PUSH1 0x1 PUSH1 0xA0 SHL SUB DUP2 AND DUP2 EQ PUSH2 0xC61 JUMPI PUSH0 PUSH0 REVERT JUMPDEST PUSH0 PUSH0 PUSH1 0x40 DUP4 DUP6 SUB SLT ISZERO PUSH2 0x2112 JUMPI PUSH0 PUSH0 REVERT JUMPDEST DUP3 CALLDATALOAD PUSH2 0x211D DUP2 PUSH2 0x20ED JUMP JUMPDEST SWAP5 PUSH1 0x20 SWAP4 SWAP1 SWAP4 ADD CALLDATALOAD SWAP4 POP POP POP JUMP JUMPDEST PUSH0 PUSH0 PUSH1 0x40 DUP4 DUP6 SUB SLT ISZERO PUSH2 0x213C JUMPI PUSH0 PUSH0 REVERT JUMPDEST DUP3 CALLDATALOAD SWAP2 POP PUSH1 0x20 DUP4 ADD CALLDATALOAD PUSH2 0x214E DUP2 PUSH2 0x20ED JUMP JUMPDEST DUP1 SWAP2 POP POP SWAP3 POP SWAP3 SWAP1 POP JUMP JUMPDEST PUSH0 PUSH1 0x20 DUP3 DUP5 SUB SLT ISZERO PUSH2 0x2169 JUMPI PUSH0 PUSH0 REVERT JUMPDEST POP CALLDATALOAD SWAP2 SWAP1 POP JUMP JUMPDEST PUSH0 PUSH1 0x20 DUP3 DUP5 SUB SLT ISZERO PUSH2 0x2180 JUMPI PUSH0 PUSH0 REVERT JUMPDEST DUP2 CALLDATALOAD PUSH1 0xFF DUP2 AND DUP2 EQ PUSH2 0xA72 JUMPI PUSH0 PUSH0 REVERT JUMPDEST PUSH0 PUSH0 PUSH1 0x20 DUP4 DUP6 SUB SLT ISZERO PUSH2 0x21A1 JUMPI PUSH0 PUSH0 REVERT JUMPDEST DUP3 CALLDATALOAD PUSH8 0xFFFFFFFFFFFFFFFF DUP2 GT ISZERO PUSH2 0x21B7 JUMPI PUSH0 PUSH0 REVERT JUMPDEST DUP4 ADD PUSH1 0x1F DUP2 ADD DUP6 SGT PUSH2 0x21C7 JUMPI PUSH0 PUSH0 REVERT JUMPDEST DUP1 CALLDATALOAD PUSH8 0xFFFFFFFFFFFFFFFF DUP2 GT ISZERO PUSH2 0x21DD JUMPI PUSH0 PUSH0 REVERT JUMPDEST DUP6 PUSH1 0x20 DUP3 PUSH1 0x5 SHL DUP5 ADD ADD GT ISZERO PUSH2 0x21F1 JUMPI PUSH0 PUSH0 REVERT JUMPDEST PUSH1 0x20 SWAP2 SWAP1 SWAP2 ADD SWAP6 SWAP1 SWAP5 POP SWAP3 POP POP POP JUMP JUMPDEST PUSH4 0x4E487B71 PUSH1 0xE0 SHL PUSH0 MSTORE PUSH1 0x21 PUSH1 0x4 MSTORE PUSH1 0x24 PUSH0 REVERT JUMPDEST PUSH1 0x3 DUP2 LT PUSH2 0x2231 JUMPI PUSH4 0x4E487B71 PUSH1 0xE0 SHL PUSH0 MSTORE PUSH1 0x21 PUSH1 0x4 MSTORE PUSH1 0x24 PUSH0 REVERT JUMPDEST SWAP1 MSTORE JUMP JUMPDEST PUSH1 0x40 DUP2 ADD PUSH2 0x2243 DUP3 DUP6 PUSH2 0x2215 JUMP JUMPDEST DUP3 PUSH1 0x20 DUP4 ADD MSTORE SWAP4 SWAP3 POP POP POP JUMP JUMPDEST PUSH0 PUSH2 0x1A0 DUP3 ADD SWAP1 POP DUP15 DUP3 MSTORE DUP14 PUSH1 0x20 DUP4 ADD MSTORE DUP13 PUSH1 0x40 DUP4 ADD MSTORE DUP12 PUSH1 0x60 DUP4 ADD MSTORE DUP11 PUSH1 0x80 DUP4 ADD MSTORE DUP10 PUSH1 0xA0 DUP4 ADD MSTORE DUP9 PUSH1 0xC0 DUP4 ADD MSTORE DUP8 PUSH1 0xE0 DUP4 ADD MSTORE DUP7 PUSH2 0x100 DUP4 ADD MSTORE DUP6 PUSH2 0x120 DUP4 ADD MSTORE DUP5 PUSH2 0x140 DUP4 ADD MSTORE DUP4 ISZERO ISZERO PUSH2 0x160 DUP4 ADD MSTORE PUSH2 0x22B1 PUSH2 0x180 DUP4 ADD DUP5 PUSH2 0x2215 JUMP JUMPDEST SWAP15 SWAP14 POP POP POP POP POP POP POP POP POP POP POP POP POP POP JUMP JUMPDEST PUSH0 PUSH2 0x1A0 DUP3 ADD SWAP1 POP DUP3 MLOAD DUP3 MSTORE PUSH1 0x20 DUP4 ADD MLOAD PUSH1 0x20 DUP4 ADD MSTORE PUSH1 0x40 DUP4 ADD MLOAD PUSH1 0x40 DUP4 ADD MSTORE PUSH1 0x60 DUP4 ADD MLOAD PUSH1 0x60 DUP4 ADD MSTORE PUSH1 0x80 DUP4 ADD MLOAD PUSH1 0x80 DUP4 ADD MSTORE PUSH1 0xA0 DUP4 ADD MLOAD PUSH1 0xA0 DUP4 ADD MSTORE PUSH1 0xC0 DUP4 ADD MLOAD PUSH1 0xC0 DUP4 ADD MSTORE PUSH1 0xE0 DUP4 ADD MLOAD PUSH1 0xE0 DUP4 ADD MSTORE PUSH2 0x100 DUP4 ADD MLOAD PUSH2 0x100 DUP4 ADD MSTORE PUSH2 0x120 DUP4 ADD MLOAD PUSH2 0x120 DUP4 ADD MSTORE PUSH2 0x140 DUP4 ADD MLOAD PUSH2 0x140 DUP4 ADD MSTORE PUSH2 0x160 DUP4 ADD MLOAD PUSH2 0x234E PUSH2 0x160 DUP5 ADD DUP3 ISZERO ISZERO SWAP1 MSTORE JUMP JUMPDEST POP PUSH2 0x180 DUP4 ADD MLOAD PUSH2 0x2363 PUSH2 0x180 DUP5 ADD DUP3 PUSH2 0x2215 JUMP JUMPDEST POP SWAP3 SWAP2 POP POP JUMP JUMPDEST PUSH0 PUSH1 0x40 DUP3 ADD SWAP1 POP PUSH2 0x237C DUP3 DUP5 MLOAD PUSH2 0x2215 JUMP JUMPDEST PUSH1 0x20 SWAP3 DUP4 ADD MLOAD SWAP2 SWAP1 SWAP3 ADD MSTORE SWAP1 JUMP JUMPDEST PUSH0 PUSH1 0x20 DUP3 DUP5 SUB SLT ISZERO PUSH2 0x239A JUMPI PUSH0 PUSH0 REVERT JUMPDEST DUP2 CALLDATALOAD PUSH2 0xA72 DUP2 PUSH2 0x20ED JUMP JUMPDEST DUP2 DUP2 SUB DUP2 DUP2 GT ISZERO PUSH2 0x137F JUMPI PUSH2 0x137F PUSH2 0x20C6 JUMP JUMPDEST PUSH4 0x4E487B71 PUSH1 0xE0 SHL PUSH0 MSTORE PUSH1 0x32 PUSH1 0x4 MSTORE PUSH1 0x24 PUSH0 REVERT JUMPDEST PUSH1 0x40 DUP1 DUP3 MSTORE DUP2 ADD DUP4 SWAP1 MSTORE PUSH0 PUSH1 0x1 PUSH1 0x1 PUSH1 0xFB SHL SUB DUP5 GT ISZERO PUSH2 0x23EA JUMPI PUSH0 PUSH0 REVERT JUMPDEST DUP4 PUSH1 0x5 SHL DUP1 DUP7 PUSH1 0x60 DUP6 ADD CALLDATACOPY PUSH1 0x20 DUP4 ADD SWAP4 SWAP1 SWAP4 MSTORE POP ADD PUSH1 0x60 ADD SWAP3 SWAP2 POP POP JUMP JUMPDEST DUP3 DUP2 MSTORE PUSH1 0x40 DUP2 ADD PUSH2 0xA72 PUSH1 0x20 DUP4 ADD DUP5 PUSH2 0x2215 JUMP JUMPDEST DUP1 DUP3 MUL DUP2 ISZERO DUP3 DUP3 DIV DUP5 EQ OR PUSH2 0x137F JUMPI PUSH2 0x137F PUSH2 0x20C6 JUMP JUMPDEST PUSH0 DUP3 PUSH2 0x244D JUMPI PUSH4 0x4E487B71 PUSH1 0xE0 SHL PUSH0 MSTORE PUSH1 0x12 PUSH1 0x4 MSTORE PUSH1 0x24 PUSH0 REVERT JUMPDEST POP DIV SWAP1 JUMP JUMPDEST DUP1 MLOAD PUSH10 0xFFFFFFFFFFFFFFFFFFFF DUP2 AND DUP2 EQ PUSH2 0x246B JUMPI PUSH0 PUSH0 REVERT JUMPDEST SWAP2 SWAP1 POP JUMP JUMPDEST PUSH0 PUSH0 PUSH0 PUSH0 PUSH0 PUSH1 0xA0 DUP7 DUP9 SUB SLT ISZERO PUSH2 0x2484 JUMPI PUSH0 PUSH0 REVERT JUMPDEST PUSH2 0x248D DUP7 PUSH2 0x2452 JUMP JUMPDEST PUSH1 0x20 DUP8 ADD MLOAD PUSH1 0x40 DUP9 ADD MLOAD PUSH1 0x60 DUP10 ADD MLOAD SWAP3 SWAP8 POP SWAP1 SWAP6 POP SWAP4 POP SWAP2 POP PUSH2 0x24B2 PUSH1 0x80 DUP8 ADD PUSH2 0x2452 JUMP JUMPDEST SWAP1 POP SWAP3 SWAP6 POP SWAP3 SWAP6 SWAP1 SWAP4 POP JUMP INVALID LOG2 PUSH5 0x6970667358 0x22 SLT KECCAK256 OR SUB RETURNDATACOPY PUSH15 0x8433DE1262E56DEDCCD24F0EADFD29 PUSH9 0x2F6CEC60ABF736156C PREVRANDAO 0xBE PUSH12 0x64736F6C634300081C003300 "},"methodIdentifiers":{"MAX_BPS()":"fd967f47","PRECISION()":"aaf5eb68","PROPOSAL_FEE_CRITICAL()":"a3af85be","PROPOSAL_FEE_HIGH()":"8545ff2a","PROPOSAL_FEE_STANDARD()":"dad06f7a","TREASURY_FEE_BPS()":"d642aa02","betBear(uint256)":"aa6b873a","betBull(uint256)":"57fb096f","bufferSeconds()":"eaba2361","cancelRound(uint256)":"7e07ab09","claim(uint256[])":"6ba4c138","claimed(uint256,address)":"120aa877","createProposal(uint8)":"6a6c7744","currentEpoch()":"76671808","executeRound()":"7b3205f5","genesisStartRound()":"452fd75a","getLatestPrice()":"8e15f473","getRound(uint256)":"8f1327c0","getTreasuryBalance()":"9b5655dc","getUserBet(uint256,address)":"c03fb87c","hasClaimed(uint256,address)":"873f6f9e","isRoundLocked(uint256)":"337fd11c","isRoundOpen(uint256)":"140fa8b2","ledger(uint256,address)":"7285c58b","lockRound()":"728af96f","minBetAmount()":"fa968eea","owner()":"8da5cb5b","pause()":"8456cb59","paused()":"5c975abb","priceFeed()":"741bef1a","renounceOwnership()":"715018a6","roundDuration()":"f7cb789a","rounds(uint256)":"8c65c81f","setBufferSeconds(uint256)":"c4dec6ed","setMinBetAmount(uint256)":"6c188593","setRoundDuration(uint256)":"36c92c3f","totalClaimed(address)":"ef5d9ae8","transferOwnership(address)":"f2fde38b","treasuryBalance()":"313dab20","unpause()":"3f4ba83a","withdrawTreasury(address,uint256)":"0d86419a"}}}}}