{
  "_format": "hh3-artifact-1",
  "contractName": "PredictionMarket",
  "sourceName": "contracts/PredictionMarket.sol",
  "abi": [
    {
      "inputs": [
        {
          "internalType": "address",
          "name": "_priceFeed",
          "type": "address"
        },
        {
          "internalType": "uint256",
          "name": "_roundDuration",
          "type": "uint256"
        },
        {
          "internalType": "uint256",
          "name": "_bufferSeconds",
          "type": "uint256"
        },
        {
          "internalType": "uint256",
          "name": "_minBetAmount",
          "type": "uint256"
        }
      ],
      "stateMutability": "nonpayable",
      "type": "constructor"
    },
    {
      "inputs": [],
      "name": "EnforcedPause",
      "type": "error"
    },
    {
      "inputs": [],
      "name": "ExpectedPause",
      "type": "error"
    },
    {
      "inputs": [],
      "name": "InvalidAddress",
      "type": "error"
    },
    {
      "inputs": [],
      "name": "InvalidAmount",
      "type": "error"
    },
    {
      "inputs": [],
      "name": "InvalidEpoch",
      "type": "error"
    },
    {
      "inputs": [],
      "name": "InvalidPriority",
      "type": "error"
    },
    {
      "inputs": [],
      "name": "NoReward",
      "type": "error"
    },
    {
      "inputs": [],
      "name": "OraclePriceInvalid",
      "type": "error"
    },
    {
      "inputs": [
        {
          "internalType": "address",
          "name": "owner",
          "type": "address"
        }
      ],
      "name": "OwnableInvalidOwner",
      "type": "error"
    },
    {
      "inputs": [
        {
          "internalType": "address",
          "name": "account",
          "type": "address"
        }
      ],
      "name": "OwnableUnauthorizedAccount",
      "type": "error"
    },
    {
      "inputs": [],
      "name": "ReentrancyGuardReentrantCall",
      "type": "error"
    },
    {
      "inputs": [],
      "name": "RoundAlreadyExecuted",
      "type": "error"
    },
    {
      "inputs": [],
      "name": "RoundNotEnded",
      "type": "error"
    },
    {
      "inputs": [],
      "name": "RoundNotLocked",
      "type": "error"
    },
    {
      "inputs": [],
      "name": "RoundNotOpen",
      "type": "error"
    },
    {
      "inputs": [],
      "name": "RoundNotStarted",
      "type": "error"
    },
    {
      "inputs": [],
      "name": "RoundStuck",
      "type": "error"
    },
    {
      "anonymous": false,
      "inputs": [
        {
          "indexed": true,
          "internalType": "address",
          "name": "sender",
          "type": "address"
        },
        {
          "indexed": true,
          "internalType": "uint256",
          "name": "epoch",
          "type": "uint256"
        },
        {
          "indexed": false,
          "internalType": "uint256",
          "name": "amount",
          "type": "uint256"
        }
      ],
      "name": "BetBear",
      "type": "event"
    },
    {
      "anonymous": false,
      "inputs": [
        {
          "indexed": true,
          "internalType": "address",
          "name": "sender",
          "type": "address"
        },
        {
          "indexed": true,
          "internalType": "uint256",
          "name": "epoch",
          "type": "uint256"
        },
        {
          "indexed": false,
          "internalType": "uint256",
          "name": "amount",
          "type": "uint256"
        }
      ],
      "name": "BetBull",
      "type": "event"
    },
    {
      "anonymous": false,
      "inputs": [
        {
          "indexed": true,
          "internalType": "address",
          "name": "sender",
          "type": "address"
        },
        {
          "indexed": true,
          "internalType": "uint256",
          "name": "epoch",
          "type": "uint256"
        },
        {
          "indexed": false,
          "internalType": "uint256",
          "name": "amount",
          "type": "uint256"
        }
      ],
      "name": "Claim",
      "type": "event"
    },
    {
      "anonymous": false,
      "inputs": [
        {
          "indexed": true,
          "internalType": "address",
          "name": "sender",
          "type": "address"
        },
        {
          "indexed": false,
          "internalType": "uint256[]",
          "name": "epochs",
          "type": "uint256[]"
        },
        {
          "indexed": false,
          "internalType": "uint256",
          "name": "totalAmount",
          "type": "uint256"
        }
      ],
      "name": "ClaimMultiple",
      "type": "event"
    },
    {
      "anonymous": false,
      "inputs": [
        {
          "indexed": true,
          "internalType": "uint256",
          "name": "epoch",
          "type": "uint256"
        },
        {
          "indexed": false,
          "internalType": "int256",
          "name": "price",
          "type": "int256"
        },
        {
          "indexed": false,
          "internalType": "enum PredictionMarket.Position",
          "name": "winner",
          "type": "uint8"
        }
      ],
      "name": "EndRound",
      "type": "event"
    },
    {
      "anonymous": false,
      "inputs": [
        {
          "indexed": true,
          "internalType": "uint256",
          "name": "epoch",
          "type": "uint256"
        },
        {
          "indexed": false,
          "internalType": "int256",
          "name": "price",
          "type": "int256"
        }
      ],
      "name": "LockRound",
      "type": "event"
    },
    {
      "anonymous": false,
      "inputs": [
        {
          "indexed": false,
          "internalType": "uint256",
          "name": "bufferSeconds",
          "type": "uint256"
        }
      ],
      "name": "NewBufferSeconds",
      "type": "event"
    },
    {
      "anonymous": false,
      "inputs": [
        {
          "indexed": false,
          "internalType": "uint256",
          "name": "minBetAmount",
          "type": "uint256"
        }
      ],
      "name": "NewMinBetAmount",
      "type": "event"
    },
    {
      "anonymous": false,
      "inputs": [
        {
          "indexed": false,
          "internalType": "uint256",
          "name": "roundDuration",
          "type": "uint256"
        }
      ],
      "name": "NewRoundDuration",
      "type": "event"
    },
    {
      "anonymous": false,
      "inputs": [
        {
          "indexed": true,
          "internalType": "address",
          "name": "previousOwner",
          "type": "address"
        },
        {
          "indexed": true,
          "internalType": "address",
          "name": "newOwner",
          "type": "address"
        }
      ],
      "name": "OwnershipTransferred",
      "type": "event"
    },
    {
      "anonymous": false,
      "inputs": [
        {
          "indexed": false,
          "internalType": "address",
          "name": "account",
          "type": "address"
        }
      ],
      "name": "Paused",
      "type": "event"
    },
    {
      "anonymous": false,
      "inputs": [
        {
          "indexed": true,
          "internalType": "address",
          "name": "proposer",
          "type": "address"
        },
        {
          "indexed": false,
          "internalType": "uint8",
          "name": "priority",
          "type": "uint8"
        },
        {
          "indexed": false,
          "internalType": "uint256",
          "name": "amount",
          "type": "uint256"
        }
      ],
      "name": "ProposalCreated",
      "type": "event"
    },
    {
      "anonymous": false,
      "inputs": [
        {
          "indexed": true,
          "internalType": "uint256",
          "name": "epoch",
          "type": "uint256"
        }
      ],
      "name": "RoundCancelled",
      "type": "event"
    },
    {
      "anonymous": false,
      "inputs": [
        {
          "indexed": true,
          "internalType": "uint256",
          "name": "epoch",
          "type": "uint256"
        }
      ],
      "name": "StartRound",
      "type": "event"
    },
    {
      "anonymous": false,
      "inputs": [
        {
          "indexed": false,
          "internalType": "uint256",
          "name": "amount",
          "type": "uint256"
        }
      ],
      "name": "TreasuryDeposited",
      "type": "event"
    },
    {
      "anonymous": false,
      "inputs": [
        {
          "indexed": true,
          "internalType": "address",
          "name": "to",
          "type": "address"
        },
        {
          "indexed": false,
          "internalType": "uint256",
          "name": "amount",
          "type": "uint256"
        }
      ],
      "name": "TreasuryWithdrawn",
      "type": "event"
    },
    {
      "anonymous": false,
      "inputs": [
        {
          "indexed": false,
          "internalType": "address",
          "name": "account",
          "type": "address"
        }
      ],
      "name": "Unpaused",
      "type": "event"
    },
    {
      "stateMutability": "payable",
      "type": "fallback"
    },
    {
      "inputs": [],
      "name": "MAX_BPS",
      "outputs": [
        {
          "internalType": "uint256",
          "name": "",
          "type": "uint256"
        }
      ],
      "stateMutability": "view",
      "type": "function"
    },
    {
      "inputs": [],
      "name": "PRECISION",
      "outputs": [
        {
          "internalType": "uint256",
          "name": "",
          "type": "uint256"
        }
      ],
      "stateMutability": "view",
      "type": "function"
    },
    {
      "inputs": [],
      "name": "PROPOSAL_FEE_CRITICAL",
      "outputs": [
        {
          "internalType": "uint256",
          "name": "",
          "type": "uint256"
        }
      ],
      "stateMutability": "view",
      "type": "function"
    },
    {
      "inputs": [],
      "name": "PROPOSAL_FEE_HIGH",
      "outputs": [
        {
          "internalType": "uint256",
          "name": "",
          "type": "uint256"
        }
      ],
      "stateMutability": "view",
      "type": "function"
    },
    {
      "inputs": [],
      "name": "PROPOSAL_FEE_STANDARD",
      "outputs": [
        {
          "internalType": "uint256",
          "name": "",
          "type": "uint256"
        }
      ],
      "stateMutability": "view",
      "type": "function"
    },
    {
      "inputs": [],
      "name": "TREASURY_FEE_BPS",
      "outputs": [
        {
          "internalType": "uint256",
          "name": "",
          "type": "uint256"
        }
      ],
      "stateMutability": "view",
      "type": "function"
    },
    {
      "inputs": [
        {
          "internalType": "uint256",
          "name": "epoch",
          "type": "uint256"
        }
      ],
      "name": "betBear",
      "outputs": [],
      "stateMutability": "payable",
      "type": "function"
    },
    {
      "inputs": [
        {
          "internalType": "uint256",
          "name": "epoch",
          "type": "uint256"
        }
      ],
      "name": "betBull",
      "outputs": [],
      "stateMutability": "payable",
      "type": "function"
    },
    {
      "inputs": [],
      "name": "bufferSeconds",
      "outputs": [
        {
          "internalType": "uint256",
          "name": "",
          "type": "uint256"
        }
      ],
      "stateMutability": "view",
      "type": "function"
    },
    {
      "inputs": [
        {
          "internalType": "uint256",
          "name": "epoch",
          "type": "uint256"
        }
      ],
      "name": "cancelRound",
      "outputs": [],
      "stateMutability": "nonpayable",
      "type": "function"
    },
    {
      "inputs": [
        {
          "internalType": "uint256[]",
          "name": "epochs",
          "type": "uint256[]"
        }
      ],
      "name": "claim",
      "outputs": [],
      "stateMutability": "nonpayable",
      "type": "function"
    },
    {
      "inputs": [
        {
          "internalType": "uint256",
          "name": "",
          "type": "uint256"
        },
        {
          "internalType": "address",
          "name": "",
          "type": "address"
        }
      ],
      "name": "claimed",
      "outputs": [
        {
          "internalType": "bool",
          "name": "",
          "type": "bool"
        }
      ],
      "stateMutability": "view",
      "type": "function"
    },
    {
      "inputs": [
        {
          "internalType": "uint8",
          "name": "priority",
          "type": "uint8"
        }
      ],
      "name": "createProposal",
      "outputs": [],
      "stateMutability": "payable",
      "type": "function"
    },
    {
      "inputs": [],
      "name": "currentEpoch",
      "outputs": [
        {
          "internalType": "uint256",
          "name": "",
          "type": "uint256"
        }
      ],
      "stateMutability": "view",
      "type": "function"
    },
    {
      "inputs": [],
      "name": "executeRound",
      "outputs": [],
      "stateMutability": "nonpayable",
      "type": "function"
    },
    {
      "inputs": [],
      "name": "genesisStartRound",
      "outputs": [],
      "stateMutability": "nonpayable",
      "type": "function"
    },
    {
      "inputs": [],
      "name": "getLatestPrice",
      "outputs": [
        {
          "internalType": "int256",
          "name": "",
          "type": "int256"
        }
      ],
      "stateMutability": "view",
      "type": "function"
    },
    {
      "inputs": [
        {
          "internalType": "uint256",
          "name": "epoch",
          "type": "uint256"
        }
      ],
      "name": "getRound",
      "outputs": [
        {
          "components": [
            {
              "internalType": "uint256",
              "name": "startTime",
              "type": "uint256"
            },
            {
              "internalType": "uint256",
              "name": "lockTime",
              "type": "uint256"
            },
            {
              "internalType": "uint256",
              "name": "closeTime",
              "type": "uint256"
            },
            {
              "internalType": "int256",
              "name": "startPrice",
              "type": "int256"
            },
            {
              "internalType": "int256",
              "name": "lockPrice",
              "type": "int256"
            },
            {
              "internalType": "int256",
              "name": "closePrice",
              "type": "int256"
            },
            {
              "internalType": "uint256",
              "name": "totalAmount",
              "type": "uint256"
            },
            {
              "internalType": "uint256",
              "name": "bullAmount",
              "type": "uint256"
            },
            {
              "internalType": "uint256",
              "name": "bearAmount",
              "type": "uint256"
            },
            {
              "internalType": "uint256",
              "name": "rewardBaseCalAmount",
              "type": "uint256"
            },
            {
              "internalType": "uint256",
              "name": "rewardAmount",
              "type": "uint256"
            },
            {
              "internalType": "bool",
              "name": "executed",
              "type": "bool"
            },
            {
              "internalType": "enum PredictionMarket.Position",
              "name": "winner",
              "type": "uint8"
            }
          ],
          "internalType": "struct PredictionMarket.Round",
          "name": "",
          "type": "tuple"
        }
      ],
      "stateMutability": "view",
      "type": "function"
    },
    {
      "inputs": [],
      "name": "getTreasuryBalance",
      "outputs": [
        {
          "internalType": "uint256",
          "name": "",
          "type": "uint256"
        }
      ],
      "stateMutability": "view",
      "type": "function"
    },
    {
      "inputs": [
        {
          "internalType": "uint256",
          "name": "epoch",
          "type": "uint256"
        },
        {
          "internalType": "address",
          "name": "user",
          "type": "address"
        }
      ],
      "name": "getUserBet",
      "outputs": [
        {
          "components": [
            {
              "internalType": "enum PredictionMarket.Position",
              "name": "position",
              "type": "uint8"
            },
            {
              "internalType": "uint256",
              "name": "amount",
              "type": "uint256"
            }
          ],
          "internalType": "struct PredictionMarket.Bet",
          "name": "",
          "type": "tuple"
        }
      ],
      "stateMutability": "view",
      "type": "function"
    },
    {
      "inputs": [
        {
          "internalType": "uint256",
          "name": "epoch",
          "type": "uint256"
        },
        {
          "internalType": "address",
          "name": "user",
          "type": "address"
        }
      ],
      "name": "hasClaimed",
      "outputs": [
        {
          "internalType": "bool",
          "name": "",
          "type": "bool"
        }
      ],
      "stateMutability": "view",
      "type": "function"
    },
    {
      "inputs": [
        {
          "internalType": "uint256",
          "name": "epoch",
          "type": "uint256"
        }
      ],
      "name": "isRoundLocked",
      "outputs": [
        {
          "internalType": "bool",
          "name": "",
          "type": "bool"
        }
      ],
      "stateMutability": "view",
      "type": "function"
    },
    {
      "inputs": [
        {
          "internalType": "uint256",
          "name": "epoch",
          "type": "uint256"
        }
      ],
      "name": "isRoundOpen",
      "outputs": [
        {
          "internalType": "bool",
          "name": "",
          "type": "bool"
        }
      ],
      "stateMutability": "view",
      "type": "function"
    },
    {
      "inputs": [
        {
          "internalType": "uint256",
          "name": "",
          "type": "uint256"
        },
        {
          "internalType": "address",
          "name": "",
          "type": "address"
        }
      ],
      "name": "ledger",
      "outputs": [
        {
          "internalType": "enum PredictionMarket.Position",
          "name": "position",
          "type": "uint8"
        },
        {
          "internalType": "uint256",
          "name": "amount",
          "type": "uint256"
        }
      ],
      "stateMutability": "view",
      "type": "function"
    },
    {
      "inputs": [],
      "name": "lockRound",
      "outputs": [],
      "stateMutability": "nonpayable",
      "type": "function"
    },
    {
      "inputs": [],
      "name": "minBetAmount",
      "outputs": [
        {
          "internalType": "uint256",
          "name": "",
          "type": "uint256"
        }
      ],
      "stateMutability": "view",
      "type": "function"
    },
    {
      "inputs": [],
      "name": "owner",
      "outputs": [
        {
          "internalType": "address",
          "name": "",
          "type": "address"
        }
      ],
      "stateMutability": "view",
      "type": "function"
    },
    {
      "inputs": [],
      "name": "pause",
      "outputs": [],
      "stateMutability": "nonpayable",
      "type": "function"
    },
    {
      "inputs": [],
      "name": "paused",
      "outputs": [
        {
          "internalType": "bool",
          "name": "",
          "type": "bool"
        }
      ],
      "stateMutability": "view",
      "type": "function"
    },
    {
      "inputs": [],
      "name": "priceFeed",
      "outputs": [
        {
          "internalType": "contract AggregatorV3Interface",
          "name": "",
          "type": "address"
        }
      ],
      "stateMutability": "view",
      "type": "function"
    },
    {
      "inputs": [],
      "name": "renounceOwnership",
      "outputs": [],
      "stateMutability": "nonpayable",
      "type": "function"
    },
    {
      "inputs": [],
      "name": "roundDuration",
      "outputs": [
        {
          "internalType": "uint256",
          "name": "",
          "type": "uint256"
        }
      ],
      "stateMutability": "view",
      "type": "function"
    },
    {
      "inputs": [
        {
          "internalType": "uint256",
          "name": "",
          "type": "uint256"
        }
      ],
      "name": "rounds",
      "outputs": [
        {
          "internalType": "uint256",
          "name": "startTime",
          "type": "uint256"
        },
        {
          "internalType": "uint256",
          "name": "lockTime",
          "type": "uint256"
        },
        {
          "internalType": "uint256",
          "name": "closeTime",
          "type": "uint256"
        },
        {
          "internalType": "int256",
          "name": "startPrice",
          "type": "int256"
        },
        {
          "internalType": "int256",
          "name": "lockPrice",
          "type": "int256"
        },
        {
          "internalType": "int256",
          "name": "closePrice",
          "type": "int256"
        },
        {
          "internalType": "uint256",
          "name": "totalAmount",
          "type": "uint256"
        },
        {
          "internalType": "uint256",
          "name": "bullAmount",
          "type": "uint256"
        },
        {
          "internalType": "uint256",
          "name": "bearAmount",
          "type": "uint256"
        },
        {
          "internalType": "uint256",
          "name": "rewardBaseCalAmount",
          "type": "uint256"
        },
        {
          "internalType": "uint256",
          "name": "rewardAmount",
          "type": "uint256"
        },
        {
          "internalType": "bool",
          "name": "executed",
          "type": "bool"
        },
        {
          "internalType": "enum PredictionMarket.Position",
          "name": "winner",
          "type": "uint8"
        }
      ],
      "stateMutability": "view",
      "type": "function"
    },
    {
      "inputs": [
        {
          "internalType": "uint256",
          "name": "_bufferSeconds",
          "type": "uint256"
        }
      ],
      "name": "setBufferSeconds",
      "outputs": [],
      "stateMutability": "nonpayable",
      "type": "function"
    },
    {
      "inputs": [
        {
          "internalType": "uint256",
          "name": "_minBetAmount",
          "type": "uint256"
        }
      ],
      "name": "setMinBetAmount",
      "outputs": [],
      "stateMutability": "nonpayable",
      "type": "function"
    },
    {
      "inputs": [
        {
          "internalType": "uint256",
          "name": "_roundDuration",
          "type": "uint256"
        }
      ],
      "name": "setRoundDuration",
      "outputs": [],
      "stateMutability": "nonpayable",
      "type": "function"
    },
    {
      "inputs": [
        {
          "internalType": "address",
          "name": "",
          "type": "address"
        }
      ],
      "name": "totalClaimed",
      "outputs": [
        {
          "internalType": "uint256",
          "name": "",
          "type": "uint256"
        }
      ],
      "stateMutability": "view",
      "type": "function"
    },
    {
      "inputs": [
        {
          "internalType": "address",
          "name": "newOwner",
          "type": "address"
        }
      ],
      "name": "transferOwnership",
      "outputs": [],
      "stateMutability": "nonpayable",
      "type": "function"
    },
    {
      "inputs": [],
      "name": "treasuryBalance",
      "outputs": [
        {
          "internalType": "uint256",
          "name": "",
          "type": "uint256"
        }
      ],
      "stateMutability": "view",
      "type": "function"
    },
    {
      "inputs": [],
      "name": "unpause",
      "outputs": [],
      "stateMutability": "nonpayable",
      "type": "function"
    },
    {
      "inputs": [
        {
          "internalType": "address payable",
          "name": "to",
          "type": "address"
        },
        {
          "internalType": "uint256",
          "name": "amount",
          "type": "uint256"
        }
      ],
      "name": "withdrawTreasury",
      "outputs": [],
      "stateMutability": "nonpayable",
      "type": "function"
    },
    {
      "stateMutability": "payable",
      "type": "receive"
    }
  ],
  "bytecode": "0x60a060405234801561000f575f5ffd5b506040516126b03803806126b083398101604081905261002e91610156565b338061005357604051631e4fbdf760e01b81525f600482015260240160405180910390fd5b61005c81610107565b50600180556001600160a01b0384166100885760405163e6c4247b60e01b815260040160405180910390fd5b825f036100a85760405163162908e360e11b815260040160405180910390fd5b8282106100c85760405163162908e360e11b815260040160405180910390fd5b805f036100e85760405163162908e360e11b815260040160405180910390fd5b6001600160a01b0390931660805260039190915560045560055561019d565b5f80546001600160a01b038381166001600160a01b0319831681178455604051919092169283917f8be0079c531659141344cd1fd0a4f28419497f9722a3daafe3b4186f6b6457e09190a35050565b5f5f5f5f60808587031215610169575f5ffd5b84516001600160a01b038116811461017f575f5ffd5b60208601516040870151606090970151919890975090945092505050565b6080516124f46101bc5f395f81816104d70152611d8501526124f45ff3fe608060405260043610610249575f3560e01c80638456cb5911610138578063aaf5eb68116100b5578063eaba236111610079578063eaba236114610778578063ef5d9ae81461078d578063f2fde38b146107b8578063f7cb789a146107d7578063fa968eea146107ec578063fd967f4714610801576102a0565b8063aaf5eb68146106e3578063c03fb87c146106fe578063c4dec6ed1461072a578063d642aa0214610749578063dad06f7a1461075d576102a0565b80638e15f473116100fc5780638e15f473146106615780638f1327c0146106755780639b5655dc146106a1578063a3af85be146106b5578063aa6b873a146106d0576102a0565b80638456cb59146105595780638545ff2a1461056d578063873f6f9e146105885780638c65c81f146105a75780638da5cb5b14610645576102a0565b80636a6c7744116101c6578063728af96f1161018a578063728af96f146104b2578063741bef1a146104c657806376671808146105115780637b3205f5146105265780637e07ab091461053a576102a0565b80636a6c7744146103fc5780636ba4c1381461040f5780636c1885931461042e578063715018a61461044d5780637285c58b14610461576102a0565b806336c92c3f1161020d57806336c92c3f146103855780633f4ba83a146103a4578063452fd75a146103b857806357fb096f146103cc5780635c975abb146103df576102a0565b80630d86419a146102b7578063120aa877146102d6578063140fa8b214610324578063313dab2014610343578063337fd11c14610366576102a0565b366102a057341561029e573460065f82825461026591906120da565b90915550506040513481527fe10ea266a27b78053a79222b9455667694ca104e5128e0c95834949b33acb5dd9060200160405180910390a15b005b341561029e573460065f82825461026591906120da565b3480156102c2575f5ffd5b5061029e6102d1366004612101565b610816565b3480156102e1575f5ffd5b5061030f6102f036600461212b565b600960209081525f928352604080842090915290825290205460ff1681565b60405190151581526020015b60405180910390f35b34801561032f575f5ffd5b5061030f61033e366004612159565b61097d565b34801561034e575f5ffd5b5061035860065481565b60405190815260200161031b565b348015610371575f5ffd5b5061030f610380366004612159565b610a79565b348015610390575f5ffd5b5061029e61039f366004612159565b610b74565b3480156103af575f5ffd5b5061029e610bd8565b3480156103c3575f5ffd5b5061029e610bea565b61029e6103da366004612159565b610c1d565b3480156103ea575f5ffd5b505f54600160a01b900460ff1661030f565b61029e61040a366004612170565b610c64565b34801561041a575f5ffd5b5061029e610429366004612190565b610e0d565b348015610439575f5ffd5b5061029e610448366004612159565b610f80565b348015610458575f5ffd5b5061029e610fdd565b34801561046c575f5ffd5b506104a461047b36600461212b565b600860209081525f92835260408084209091529082529020805460019091015460ff9091169082565b60405161031b929190612235565b3480156104bd575f5ffd5b5061029e610fee565b3480156104d1575f5ffd5b506104f97f000000000000000000000000000000000000000000000000000000000000000081565b6040516001600160a01b03909116815260200161031b565b34801561051c575f5ffd5b5061035860025481565b348015610531575f5ffd5b5061029e6110bd565b348015610545575f5ffd5b5061029e610554366004612159565b611293565b348015610564575f5ffd5b5061029e611349565b348015610578575f5ffd5b50610358671bc16d674ec8000081565b348015610593575f5ffd5b5061030f6105a236600461212b565b611359565b3480156105b2575f5ffd5b5061062c6105c1366004612159565b600760208190525f918252604090912080546001820154600283015460038401546004850154600586015460068701549787015460088801546009890154600a8a0154600b909a0154989a979996989597949693959293919290919060ff808216916101009004168d565b60405161031b9d9c9b9a99989796959493929190612250565b348015610650575f5ffd5b505f546001600160a01b03166104f9565b34801561066c575f5ffd5b50610358611385565b348015610680575f5ffd5b5061069461068f366004612159565b611393565b60405161031b91906122c3565b3480156106ac575f5ffd5b50600654610358565b3480156106c0575f5ffd5b50610358674563918244f4000081565b61029e6106de366004612159565b611473565b3480156106ee575f5ffd5b50610358670de0b6b3a764000081565b348015610709575f5ffd5b5061071d61071836600461212b565b6114ae565b60405161031b919061236a565b348015610735575f5ffd5b5061029e610744366004612159565b611528565b348015610754575f5ffd5b50610358606481565b348015610768575f5ffd5b506103586706f05b59d3b2000081565b348015610783575f5ffd5b5061035860045481565b348015610798575f5ffd5b506103586107a736600461238a565b600a6020525f908152604090205481565b3480156107c3575f5ffd5b5061029e6107d236600461238a565b611587565b3480156107e2575f5ffd5b5061035860035481565b3480156107f7575f5ffd5b5061035860055481565b34801561080c575f5ffd5b5061035861271081565b61081e6115c1565b6001600160a01b0382166108455760405163e6c4247b60e01b815260040160405180910390fd5b805f036108655760405163162908e360e11b815260040160405180910390fd5b8060065410156108885760405163374c934360e11b815260040160405180910390fd5b8060065f82825461089991906123a5565b90915550506040515f906001600160a01b0384169083908381818185875af1925050503d805f81146108e6576040519150601f19603f3d011682016040523d82523d5f602084013e6108eb565b606091505b50509050806109355760405162461bcd60e51b815260206004820152601160248201527015da5d1a191c985dd85b0819985a5b1959607a1b60448201526064015b60405180910390fd5b826001600160a01b03167f41fdd680478135993bc53fb2ffaf9560951b57ef62ff6badd02b61e018b4f17f8360405161097091815260200190565b60405180910390a2505050565b5f81815260076020818152604080842081516101a08101835281548152600182015493810193909352600280820154928401929092526003810154606084015260048101546080840152600581015460a0840152600681015460c08401529283015460e08301526008830154610100808401919091526009840154610120840152600a840154610140840152600b84015460ff80821615156101608601528695936101808601939092041690811115610a3857610a38612201565b6002811115610a4957610a49612201565b90525080519091504210801590610a635750806020015142105b8015610a725750806101600151155b9392505050565b5f81815260076020818152604080842081516101a08101835281548152600182015493810193909352600280820154928401929092526003810154606084015260048101546080840152600581015460a0840152600681015460c08401529283015460e08301526008830154610100808401919091526009840154610120840152600a840154610140840152600b84015460ff80821615156101608601528695936101808601939092041690811115610b3457610b34612201565b6002811115610b4557610b45612201565b81525050905080602001514210158015610a635750608081015115158015610a72575061016001511592915050565b610b7c6115c1565b805f03610b9c5760405163162908e360e11b815260040160405180910390fd5b60038190556040518181527f250d2afa340f26f6b0ffe733238af3124888dc4af5b4b49e52d839153e2ee2f5906020015b60405180910390a150565b610be06115c1565b610be86115ed565b565b610bf26115c1565b60025415610c135760405163298ef61b60e21b815260040160405180910390fd5b610be86001611641565b610c2561170b565b610c2d611735565b333b15610c4d5760405163402bc00760e01b815260040160405180910390fd5b610c5881600161175f565b610c6160018055565b50565b610c6c61170b565b60028160ff161115610c9157604051630357013b60e51b815260040160405180910390fd5b5f60ff821615610cc2578160ff16600114610cb457674563918244f40000610ccc565b671bc16d674ec80000610ccc565b6706f05b59d3b200005b905080341015610cef5760405163162908e360e11b815260040160405180910390fd5b8060065f828254610d0091906120da565b90915550506040518181527fe10ea266a27b78053a79222b9455667694ca104e5128e0c95834949b33acb5dd9060200160405180910390a15f610d4382346123a5565b90508015610dd2576040515f90339083908381818185875af1925050503d805f8114610d8a576040519150601f19603f3d011682016040523d82523d5f602084013e610d8f565b606091505b5050905080610dd05760405162461bcd60e51b815260206004820152600d60248201526c1499599d5b990819985a5b1959609a1b604482015260640161092c565b505b6040805160ff851681526020810184905233917ff69a4fe943fe6a190cf6af29a3c959c939584665a9fe3ca31548c2a50a9da67d9101610970565b610e15611735565b5f805b82811015610e5b575f848483818110610e3357610e336123b8565b905060200201359050610e4681336119c0565b610e5090846120da565b925050600101610e18565b50805f03610e7c5760405163374c934360e11b815260040160405180910390fd5b335f908152600a602052604081208054839290610e9a9084906120da565b90915550506040515f90339083908381818185875af1925050503d805f8114610ede576040519150601f19603f3d011682016040523d82523d5f602084013e610ee3565b606091505b5050905080610f2c5760405162461bcd60e51b815260206004820152601560248201527410db185a5b481d1c985b9cd9995c8819985a5b1959605a1b604482015260640161092c565b336001600160a01b03167fcf57e0980467c849acd2a0022186411515f6ff47e23496846234eaba46faccfb858585604051610f69939291906123cc565b60405180910390a25050610f7c60018055565b5050565b610f886115c1565b805f03610fa85760405163162908e360e11b815260040160405180910390fd5b60058190556040518181527fbe054849fe210c446a3b3f68394753f210607326b38581dc64bd2e94a87f018290602001610bcd565b610fe56115c1565b610be85f611d30565b610ff661170b565b6002545f03611018576040516323a71b8760e21b815260040160405180910390fd5b6002545f908152600760205260409020600181015442101561104d5760405163402bc00760e01b815260040160405180910390fd5b60048101541561106f57604051624049e360e41b815260040160405180910390fd5b5f611078611d7f565b60048301819055600254604051828152919250907feef94cbda40aa01b9b02b7dbd6075caa3662c0fabf77a84ed674b09b0ff9cb1e9060200160405180910390a25050565b6110c561170b565b6110cd611735565b6002545f036110ef576040516323a71b8760e21b815260040160405180910390fd5b600280545f9081526007602052604090209081015442101561112457604051636218b96960e11b815260040160405180910390fd5b600b81015460ff161561114a5760405163298ef61b60e21b815260040160405180910390fd5b80600401545f0361116e57604051634e7e4c0b60e01b815260040160405180910390fd5b611176611d7f565b6005820155600b8101805460ff191660011790556002545f9081908190819061119e90611eaa565b600b890180549498509296509094509250859161ff0019166101008360028111156111cb576111cb612201565b0217905550600a850183905560098501819055811561122e578160065f8282546111f591906120da565b90915550506040518281527fe10ea266a27b78053a79222b9455667694ca104e5128e0c95834949b33acb5dd9060200160405180910390a15b6002547ffa8970b52397cdc9ae50aeb762dd64a9d17704fe4725ed1ead14e1c1b55ff0ec866005015486604051611266929190612408565b60405180910390a2611285600254600161128091906120da565b611641565b5050505050610be860018055565b61129b6115c1565b5f818152600760205260409020600b81015460ff16156112ce5760405163298ef61b60e21b815260040160405180910390fd5b60028101546112df90610e106120da565b4210156112fe57604051624049e360e41b815260040160405180910390fd5b600b8101805461ffff191660011790555f600a82018190556009820181905560405183917fbf7aeff89cf7a4c3d0145879e39aa6a19e8e64ed585090ef86bf31f4d2ae57bf91a25050565b6113516115c1565b610be8611fee565b5f8281526009602090815260408083206001600160a01b038516845290915290205460ff165b92915050565b5f61138e611d7f565b905090565b61139b612059565b5f8281526007602081815260409283902083516101a08101855281548152600182015492810192909252600280820154948301949094526003810154606083015260048101546080830152600581015460a0830152600681015460c08301529182015460e08201526008820154610100808301919091526009830154610120830152600a830154610140830152600b83015460ff80821615156101608501529294610180860193929091049091169081111561145957611459612201565b600281111561146a5761146a612201565b90525092915050565b61147b61170b565b611483611735565b333b156114a35760405163402bc00760e01b815260040160405180910390fd5b610c5881600261175f565b6040805180820182525f8082526020808301829052858252600881528382206001600160a01b0386168352905282902082518084019093528054919291829060ff16600281111561150157611501612201565b600281111561151257611512612201565b8152602001600182015481525050905092915050565b6115306115c1565b60035481106115525760405163162908e360e11b815260040160405180910390fd5b60048190556040518181527fcc6fa7a3021388d141719d37c1605733e6aad6eba3b17866afa98a0cfe23f35590602001610bcd565b61158f6115c1565b6001600160a01b0381166115b857604051631e4fbdf760e01b81525f600482015260240161092c565b610c6181611d30565b5f546001600160a01b03163314610be85760405163118cdaa760e01b815233600482015260240161092c565b6115f5612030565b5f805460ff60a01b191690557f5db9ee0a495bf2e6ff9c91a7834c1ba4fdd244a5e8aa4e537bd38aeae4b073aa335b6040516001600160a01b03909116815260200160405180910390a1565b5f61164a611d7f565b5f838152600760205260409020428155600454600354929350909161166f91906123a5565b61167990426120da565b600182015560035461168b90426120da565b600282810191909155600382018390555f600483018190556005830181905560068301819055600783018190556008830181905560098301819055600a8301819055600b8301805461ffff191690559084905560405184917f939f42374aa9bf1d8d8cd56d8a9110cb040cd8dfeae44080c6fcf2645e51b45291a2505050565b5f54600160a01b900460ff1615610be85760405163d93c066560e01b815260040160405180910390fd5b60026001540361175857604051633ee5aeb560e01b815260040160405180910390fd5b6002600155565b60025482146117815760405163d5b25b6360e01b815260040160405180910390fd5b5f82815260076020526040902080544210806117a1575080600101544210155b156117bf5760405163402bc00760e01b815260040160405180910390fd5b6005543410156117e25760405163162908e360e11b815260040160405180910390fd5b600b81015460ff16156118085760405163402bc00760e01b815260040160405180910390fd5b5f82600281111561181b5761181b612201565b036118395760405163162908e360e11b815260040160405180910390fd5b5f83815260086020908152604080832033845290915290206001810154156118a65782600281111561186d5761186d612201565b815460ff16600281111561188357611883612201565b146118a15760405163162908e360e11b815260040160405180910390fd5b6118ca565b80548390829060ff191660018360028111156118c4576118c4612201565b02179055505b34816001015f8282546118dd91906120da565b9250508190555034826006015f8282546118f791906120da565b909155506001905083600281111561191157611911612201565b0361196a5734826007015f82825461192991906120da565b9091555050604051348152849033907f438122d8cff518d18388099a5181f0d17a12b4f1b55faedf6e4a6acee0060c129060200160405180910390a36119ba565b34826008015f82825461197d91906120da565b9091555050604051348152849033907f0d8c1fe3e67ab767116a81f122b83c2557a8c2564019cb7c4f83de1aeb1f1f0d9060200160405180910390a35b50505050565b5f82815260076020818152604080842081516101a08101835281548152600182015493810193909352600280820154928401929092526003810154606084015260048101546080840152600581015460a0840152600681015460c08401529283015460e08301526008830154610100808401919091526009840154610120840152600a840154610140840152600b84015460ff80821615156101608601528695936101808601939092041690811115611a7b57611a7b612201565b6002811115611a8c57611a8c612201565b815250509050806101600151611aa5575f91505061137f565b5f8481526009602090815260408083206001600160a01b038716845290915290205460ff1615611ad8575f91505061137f565b5f8481526008602090815260408083206001600160a01b038716845290915280822081518083019092528054829060ff166002811115611b1a57611b1a612201565b6002811115611b2b57611b2b612201565b8152602001600182015481525050905080602001515f03611b50575f9250505061137f565b5f8261018001516002811115611b6857611b68612201565b03611be8575f8581526009602090815260408083206001600160a01b03881680855290835292819020805460ff191660011790559083015190518792917f34fcbac0073d7c3d388e51312faf357774904998eeb8fca628b9e6f65ee1cbf791611bd391815260200190565b60405180910390a360200151915061137f9050565b8161018001516002811115611bff57611bff612201565b81516002811115611c1257611c12612201565b14611c21575f9250505061137f565b8161012001515f03611c61575050505f8281526009602090815260408083206001600160a01b03851684529091528120805460ff1916600117905561137f565b5f8261012001518361014001518360200151611c7d919061241c565b611c879190612433565b9050805f03611cc6575050505f8381526009602090815260408083206001600160a01b03861684529091528120805460ff19166001179055905061137f565b5f8681526009602090815260408083206001600160a01b03891680855290835292819020805460ff19166001179055518381528892917f34fcbac0073d7c3d388e51312faf357774904998eeb8fca628b9e6f65ee1cbf7910160405180910390a395945050505050565b5f80546001600160a01b038381166001600160a01b0319831681178455604051919092169283917f8be0079c531659141344cd1fd0a4f28419497f9722a3daafe3b4186f6b6457e09190a35050565b5f5f5f5f7f00000000000000000000000000000000000000000000000000000000000000006001600160a01b031663feaf968c6040518163ffffffff1660e01b815260040160a060405180830381865afa158015611ddf573d5f5f3e3d5ffd5b505050506040513d601f19601f82011682018060405250810190611e039190612470565b94509450509350505f8313611e2b5760405163e5ea8c6560e01b815260040160405180910390fd5b815f03611e4b5760405163e5ea8c6560e01b815260040160405180910390fd5b610e10611e5883426123a5565b10611e765760405163e5ea8c6560e01b815260040160405180910390fd5b8069ffffffffffffffffffff165f03611ea25760405163e5ea8c6560e01b815260040160405180910390fd5b509092915050565b5f818152600760205260408120600381015460058201548392839283921315611ed65760019450611efe565b806003015481600501541215611eef5760029450611efe565b505f9250829150819050611fe7565b80600601545f03611f1857505f9250829150819050611fe7565b6001856002811115611f2c57611f2c612201565b148015611f3c57505f8160070154115b15611f7a576008810154612710611f5460648361241c565b611f5e9190612433565b9350611f6a84826123a5565b9450816007015492505050611fe7565b6002856002811115611f8e57611f8e612201565b148015611f9e57505f8160080154115b15611fdc576007810154612710611fb660648361241c565b611fc09190612433565b9350611fcc84826123a5565b9450816008015492505050611fe7565b505f92508291508190505b9193509193565b611ff661170b565b5f805460ff60a01b1916600160a01b1790557f62e78cea01bee320cd4e420270b5ea74000d11b0c9f74754ebdbfc544b05a2586116243390565b5f54600160a01b900460ff16610be857604051638dfc202b60e01b815260040160405180910390fd5b604051806101a001604052805f81526020015f81526020015f81526020015f81526020015f81526020015f81526020015f81526020015f81526020015f81526020015f81526020015f81526020015f151581526020015f60028111156120c1576120c1612201565b905290565b634e487b7160e01b5f52601160045260245ffd5b8082018082111561137f5761137f6120c6565b6001600160a01b0381168114610c61575f5ffd5b5f5f60408385031215612112575f5ffd5b823561211d816120ed565b946020939093013593505050565b5f5f6040838503121561213c575f5ffd5b82359150602083013561214e816120ed565b809150509250929050565b5f60208284031215612169575f5ffd5b5035919050565b5f60208284031215612180575f5ffd5b813560ff81168114610a72575f5ffd5b5f5f602083850312156121a1575f5ffd5b823567ffffffffffffffff8111156121b7575f5ffd5b8301601f810185136121c7575f5ffd5b803567ffffffffffffffff8111156121dd575f5ffd5b8560208260051b84010111156121f1575f5ffd5b6020919091019590945092505050565b634e487b7160e01b5f52602160045260245ffd5b6003811061223157634e487b7160e01b5f52602160045260245ffd5b9052565b604081016122438285612215565b8260208301529392505050565b5f6101a0820190508e82528d60208301528c60408301528b60608301528a60808301528960a08301528860c08301528760e08301528661010083015285610120830152846101408301528315156101608301526122b1610180830184612215565b9e9d5050505050505050505050505050565b5f6101a082019050825182526020830151602083015260408301516040830152606083015160608301526080830151608083015260a083015160a083015260c083015160c083015260e083015160e083015261010083015161010083015261012083015161012083015261014083015161014083015261016083015161234e61016084018215159052565b50610180830151612363610180840182612215565b5092915050565b5f60408201905061237c828451612215565b602092830151919092015290565b5f6020828403121561239a575f5ffd5b8135610a72816120ed565b8181038181111561137f5761137f6120c6565b634e487b7160e01b5f52603260045260245ffd5b604080825281018390525f6001600160fb1b038411156123ea575f5ffd5b8360051b808660608501376020830193909352500160600192915050565b82815260408101610a726020830184612215565b808202811582820484141761137f5761137f6120c6565b5f8261244d57634e487b7160e01b5f52601260045260245ffd5b500490565b805169ffffffffffffffffffff8116811461246b575f5ffd5b919050565b5f5f5f5f5f60a08688031215612484575f5ffd5b61248d86612452565b602087015160408801516060890151929750909550935091506124b260808701612452565b9050929550929590935056fea264697066735822122017033e6e8433de1262e56dedccd24f0eadfd29682f6cec60abf736156c44be6b64736f6c634300081c0033",
  "linkReferences": {},
  "deployedLinkReferences": {},
  "immutableReferences": {
    "499": [
      {
        "length": 32,
        "start": 1239
      },
      {
        "length": 32,
        "start": 7557
      }
    ]
  },
  "inputSourceName": "project/contracts/PredictionMarket.sol",
  "buildInfoId": "solc-0_8_28-8feeadede1ad5c3abb5a64031b85b219b90be00a"
}